:020000040800F2
:1000000000800020653B0008072A00080D2A000830
:10001000132A0008192A00081F2A000800000000FF
:10002000000000000000000000000000252A000879
:10003000312A0008000000003D2A0008492A000873
:10004000B53B0008B53B0008552A0008B53B000841
:10005000B53B0008B53B0008692A0008772A00086C
:10006000B53B0008B53B0008B53B0008B53B0008B0
:10007000B53B0008B53B0008B53B0008852A0008E1
:10008000B53B0008B53B0008B53B0008B53B000890
:10009000B53B0008B53B0008B53B0008B53B000880
:1000A000B53B0008B53B0008B53B0008B53B000870
:1000B000B53B0008B53B0008B53B0008B53B000860
:1000C000B53B0008B53B0008B53B0008B53B000850
:1000D000B53B0008992A0008B53B0008B53B00086D
:1000E000B53B0008B53B0008AD2A0008B53B000849
:1000F000B53B0008B53B0008B53B0008B53B000820
:10010000B53B0008B53B0008C12A0008B53B000814
:10011000B53B0008B53B0008B53B0008B53B0008FF
:10012000B53B0008B53B0008B53B0008B53B0008EF
:08013000B53B0008B53B0008D7
:1001400010B5054C237833B9044B13B10448AFF311
:1001500000800123237010BD2C020020000000004D
:1001600078D2010808B5034B1BB103490348AFF32C
:10017000008008BD000000003002002078D2010895
:10018000034613F8012B002AFBD1181A01387047D7
:1001900001F0FF01102A2BDB10F0070F08D010F838
:1001A000013B013A8B422DD010F0070F42B3F6D13C
:1001B000F0B441EA012141EA014122F007047FF055
:1001C00000070023F0E80256083C85EA010586EAAC
:1001D000010685FA47F5A3FA87F586FA47F6A5FAE8
:1001E00087F68EB9EED1F0BC01F0FF0102F00702F4
:1001F00032B110F8013B013A83EA010313B1F8D19F
:100200000020704701387047002D06BF354603387F
:10021000073815F0010F07D1013015F4807F02BFB8
:10022000013015F4C03F0130F0BC0138704700BF09
:1002300081F0004102E000BF83F0004330B54FEA97
:1002400041044FEA430594EA050F08BF90EA020F04
:100250001FBF54EA000C55EA020C7FEA645C7FEA97
:10026000655C00F0E2804FEA5454D4EB5555B8BFBA
:100270006D420CDD2C4480EA020281EA030382EA2B
:10028000000083EA010180EA020281EA0303362DBD
:1002900088BF30BD11F0004F4FEA01314FF4801C90
:1002A0004CEA113102D0404261EB410113F0004FA2
:1002B0004FEA03334CEA133302D0524263EB430359
:1002C00094EA050F00F0A780A4F10104D5F1200EF7
:1002D0000DDB02FA0EFC22FA05F2801841F1000152
:1002E00003FA0EF2801843FA05F359410EE0A5F126
:1002F00020050EF1200E012A03FA0EFC28BF4CF057
:10030000020C43FA05F3C01851EBE37101F000450C
:1003100007D54FF0000EDCF1000C7EEB00006EEB19
:100320000101B1F5801F1BD3B1F5001F0CD34908A3
:100330005FEA30004FEA3C0C04F101044FEA4452FA
:1003400012F5800F80F09A80BCF1004F08BF5FEA81
:10035000500C50F1000041EB045141EA050130BD61
:100360005FEA4C0C404141EB010111F4801FA4F104
:100370000104E9D191F0000F04BF01460020B1FA59
:1003800081F308BF2033A3F10B03B3F120020CDA91
:100390000C3208DD02F1140CC2F10C0201FA0CF06F
:1003A00021FA02F10CE002F11402D8BFC2F1200CD4
:1003B00001FA02F120FA0CFCDCBF41EA0C0190408A
:1003C000E41AA2BF01EB0451294330BD6FEA0404D3
:1003D0001F3C1CDA0C340EDC04F11404C4F12002BE
:1003E00020FA04F001FA02F340EA030021FA04F3D0
:1003F00045EA030130BDC4F10C04C4F1200220FA27
:1004000002F001FA04F340EA0300294630BD21FA64
:1004100004F0294630BD94F0000F83F4801306BF2A
:1004200081F480110134013D4EE77FEA645C18BF1E
:100430007FEA655C29D094EA050F08BF90EA020FB5
:1004400005D054EA000C04BF1946104630BD91EAAD
:10045000030F1EBF0021002030BD5FEA545C05D1B0
:100460004000494128BF41F0004130BD14F58004EF
:100470003CBF01F5801130BD01F0004545F0FE4163
:1004800041F470014FF0000030BD7FEA645C1ABF98
:10049000194610467FEA655C1CBF0B46024650EACF
:1004A000013406BF52EA033591EA030F41F40021FB
:1004B00030BD00BF90F0000F04BF0021704730B581
:1004C0004FF4806404F132044FF000054FF0000156
:1004D00050E700BF90F0000F04BF0021704730B517
:1004E0004FF4806404F1320410F0004548BF4042EC
:1004F0004FF000013EE700BF42004FEAE2014FEA41
:1005000031014FEA02701FBF12F07F4393F07F4F1B
:1005100081F06051704732F07F4208BF704793F01E
:100520007F4F04BF41F40021704730B54FF4607431
:1005300001F0004521F000411CE700BF50EA010234
:1005400008BF704730B54FF000050AE050EA0102DD
:1005500008BF704730B511F0004502D5404261EB4D
:1005600041014FF4806404F132045FEA915C3FF48E
:10057000D8AE4FF003025FEADC0C18BF03325FEA2B
:10058000DC0C18BF033202EBDC02C2F1200300FADC
:1005900003FC20FA02F001FA03FE40EA0E0021FA01
:1005A00002F11444BDE600BF4FF0FF3C06E000BF7F
:1005B0004FF0010C02E000BF4FF0010C4DF804CDEC
:1005C0004FEA410C7FEA6C5C4FEA430C18BF7FEAAC
:1005D0006C5C1BD001B050EA410C0CBF52EA430CDA
:1005E00091EA030F02BF90EA020F0020704710F15A
:1005F000000F91EA030F58BF994208BF90422CBFE9
:10060000D8176FEAE37040F0010070474FEA410CE1
:100610007FEA6C5C02D150EA013C07D14FEA430CFF
:100620007FEA6C5CD6D152EA033CD3D05DF8040B70
:10063000704700BF8446104662468C4619466346A2
:1006400000E000BF01B5FFF7B7FF002848BF10F179
:10065000000F01BD4DF808EDFFF7F4FF0CBF0120BE
:1006600000205DF808FB00BF4DF808EDFFF7EAFF3A
:1006700034BF012000205DF808FB00BF4DF808EDF5
:10068000FFF7E0FF94BF012000205DF808FB00BFEA
:100690004DF808EDFFF7CEFF94BF012000205DF874
:1006A00008FB00BF4DF808EDFFF7C4FF34BF012081
:1006B00000205DF808FB00BF4FEA410212F500126E
:1006C00015D211D56FF47873B3EB625212D94FEA99
:1006D000C12343F0004343EA505311F0004F23FA83
:1006E00002F018BF404270474FF00000704750EAD8
:1006F000013005D111F0004008BF6FF00040704795
:100700004FF00000704700BF80F0004002E000BFE3
:1007100081F0004142001FBF5FEA410392EA030FEC
:100720007FEA226C7FEA236C6AD04FEA1262D2EB36
:100730001363C1BFD218414048404140B8BF5B423B
:10074000192B88BF704710F0004F40F4000020F0D4
:100750007F4018BF404211F0004F41F4000121F0EA
:100760007F4118BF494292EA030F3FD0A2F1010234
:1007700041FA03FC10EB0C00C3F1200301FA03F172
:1007800000F0004302D5494260EB4000B0F5000F95
:1007900013D3B0F1807F06D340084FEA310102F154
:1007A0000102FE2A51D2B1F1004F40EBC25008BF06
:1007B00020F0010040EA03007047490040EB0000D0
:1007C00010F4000FA2F10102EDD1B0FA80FCACF1FF
:1007D000080CB2EB0C0200FA0CF0AABF00EBC250FE
:1007E00052421843BCBFD0401843704792F0000FEC
:1007F00081F4000106BF80F400000132013BB5E73F
:100800004FEA41037FEA226C18BF7FEA236C21D0B4
:1008100092EA030F04D092F0000F08BF0846704719
:1008200090EA010F1CBF0020704712F07F4F04D1E7
:10083000400028BF40F00040704712F100723CBFFA
:1008400000F50000704700F0004343F0FE4040F424
:10085000000070477FEA226216BF08467FEA2363E2
:100860000146420206BF5FEA412390EA010F40F4CD
:10087000800070474FF0000304E000BF10F0004319
:1008800048BF40425FEA000C08BF704743F0964300
:1008900001464FF000001CE050EA010208BF70471B
:1008A0004FF000030AE000BF50EA010208BF7047A2
:1008B00011F0004302D5404261EB41015FEA010CB7
:1008C00002BF84460146002043F0B64308BFA3F1AF
:1008D0008053A3F50003BCFA8CF2083AA3EBC25391
:1008E00010DB01FA02FC634400FA02FCC2F12002B0
:1008F000BCF1004F20FA02F243EB020008BF20F0E7
:100900000100704702F1200201FA02FCC2F120024C
:1009100050EA4C0021FA02F243EB020008BF20EA41
:10092000DC7070474FF0FF0C1CEAD0521EBF1CEA6F
:10093000D15392EA0C0F93EA0C0F6FD01A4480EA5D
:10094000010C400218BF5FEA41211ED04FF0006346
:1009500043EA501043EA5111A0FB01310CF0004072
:10096000B1F5000F3EBF490041EAD3715B0040EA98
:10097000010062F17F02FD2A1DD8B3F1004F40EB68
:10098000C25008BF20F00100704790F0000F0CF03B
:10099000004C08BF49024CEA502040EA51207F3AFF
:1009A000C2BFD2F1FF0340EAC250704740F40000DA
:1009B0004FF00003013A5DDC12F1190FDCBF00F0CB
:1009C00000407047C2F10002410021FA02F1C2F179
:1009D000200200FA02FC5FEA310040F1000053EA15
:1009E0004C0308BF20EADC70704792F0000F00F063
:1009F000004C02BF400010F4000F013AF9D040EA69
:100A00000C0093F0000F01F0004C02BF490011F4FC
:100A1000000F013BF9D041EA0C018FE70CEAD153FA
:100A200092EA0C0F18BF93EA0C0F0AD030F0004C7A
:100A300018BF31F0004CD8D180EA010000F000402E
:100A4000704790F0000F17BF90F0004F084691F0EC
:100A5000000F91F0004F14D092EA0C0F01D1420226
:100A60000FD193EA0C0F03D14B0218BF084608D1EF
:100A700080EA010000F0004040F0FE4040F4000039
:100A8000704740F0FE4040F4400070474FF0FF0CCC
:100A90001CEAD0521EBF1CEAD15392EA0C0F93EA13
:100AA0000C0F69D0A2EB030280EA010C49024FEA65
:100AB000402037D04FF0805343EA111143EA10131E
:100AC0000CF000408B4238BF5B0042F17D024FF4D6
:100AD000000C8B4224BF5B1A40EA0C00B3EB510FB1
:100AE00024BFA3EB510340EA5C00B3EB910F24BF9A
:100AF000A3EB910340EA9C00B3EBD10F24BFA3EB1F
:100B0000D10340EADC001B0118BF5FEA1C1CE0D1E6
:100B1000FD2A3FF650AF8B4240EBC25008BF20F099
:100B2000010070470CF0004C4CEA50207F32C2BFED
:100B3000D2F1FF0340EAC250704740F400004FF08A
:100B40000003013A37E792F0000F00F0004C02BFBB
:100B5000400010F4000F013AF9D040EA0C0093F085
:100B6000000F01F0004C02BF490011F4000F013BDF
:100B7000F9D041EA0C0195E70CEAD15392EA0C0F47
:100B800008D142027FF47DAF93EA0C0F7FF470AF7F
:100B9000084676E793EA0C0F04D14B023FF44CAFC2
:100BA00008466EE730F0004C18BF31F0004CCAD157
:100BB00030F000427FF45CAF31F000437FF43CAF93
:100BC0005FE700BF42000ED2B2F1FE4F0BD34FF0F1
:100BD0009E03B3EB126209D44FEA002343F00043B3
:100BE00023FA02F070474FF00000704712F1610FD6
:100BF00001D1420202D14FF0FF3070474FF00000A8
:100C0000704700BF53B94AB9002908BF00281CBF6C
:100C10004FF0FF314FF0FF3001F0F8B8ADF1080CA4
:100C20006DE904CE00F006F8DDF804E0DDE902230A
:100C300004B070472DE9F047089E04468846002B13
:100C40004BD18A42154667D9B2FA82F24AB1C2F153
:100C5000200701FA02F320FA07F7954047EA030854
:100C600094404FEA154E230CB8FBFEF71FFA85FCA3
:100C70000EFB178843EA084307FB0CF1994209D998
:100C8000EB1807F1FF3080F01B81994240F2188188
:100C9000023F2B445B1AA4B2B3FBFEF00EFB1033F1
:100CA00044EA034400FB0CFCA44509D92C1900F1CB
:100CB000FF3380F00781A44540F2048102382C44C0
:100CC00040EA0740A4EB0C0400271EB1D4400023E7
:100CD000C6E900433946BDE8F0878B4209D9002EAA
:100CE00000F0EB800027C6E9000138463946BDE830
:100CF000F087B3FA83F7002F47D18B4202D38242A9
:100D000000F2FA80841A61EB030301209846002E5A
:100D1000E0D0C6E90048DDE702B9FFDEB2FA82F2B0
:100D2000002A40F08F80491B4FEA154E1FFA85F8C4
:100D30000127B1FBFEFC230C0EFB1C1143EA01430F
:100D400008FB0CF1994207D9EB180CF1FF3002D2E5
:100D5000994200F2CD808446591AA3B2B1FBFEF04D
:100D60000EFB101443EA044408FB00F8A04507D921
:100D70002C1900F1FF3302D2A04500F2B6801846CC
:100D8000A4EB080440EA0C409FE7C7F1200CBB40ED
:100D900022FA0CFE4EEA030E01FA07F420FA0CF5D3
:100DA00021FA0CF34FEA1E482543B3FBF8F92C0C4B
:100DB00008FB19331FFA8EFA44EA034309FB0AF4CD
:100DC0009C4202FA07F200FA07F10BD91EEB03036B
:100DD00009F1FF3080F087809C4240F28480A9F1C5
:100DE000020973441B1BADB2B3FBF8F008FB1033D0
:100DF00045EA034400FB0AFAA24508D91EEB0404A5
:100E000000F1FF336BD2A24569D90238744440EA3D
:100E10000940A0FB0289A4EB0A044C45C2464B469C
:100E200054D351D0002E69D0B1EB0A0564EB030412
:100E300004FA0CFCFD40FC404CEA0505C6E90054F0
:100E4000002747E7C2F1200320FA03F7954001FA93
:100E500002F021FA03F34FEA154E3843010CB3FBBD
:100E6000FEF71FFA85F80EFB173341EA034107FB33
:100E700008F38B4204FA02F407D9691807F1FF3C22
:100E80002FD28B422DD9023F2944CB1A81B2B3FB1A
:100E9000FEF00EFB103341EA034100FB08F38B42E6
:100EA00007D9691800F1FF3C17D28B4215D90238D7
:100EB0002944C91A40EA07473BE73746304609E765
:100EC0000746E7E61846FBE64145ABD2B8EB020A17
:100ED00069EB0E0201381346A4E76046E9E71846BD
:100EE00095E76746D1E781467CE702382C4447E71F
:100EF000ACF1020C2B442FE7384608E73746E9E609
:100F000003685A004CBF43F0004323F000431844E9
:100F1000704700BF61B32DE9F84F01F1FF3A9046E9
:100F20000646D146002707EB090404EBD47464108D
:100F3000E50071190846FFF7E3FFA245834605F176
:100F40000800304409D0FFF7DBFFC34500F1FF3054
:100F500005D8404509D2671CE5E7C34505D9A74236
:100F600002D004F1FF39DEE700210846BDE8F88F22
:100F700008467047012807D0022807D0044B0028F4
:100F80000CBF18460020704702487047024870475F
:100F900061160008651600086916000830B5254B73
:100FA00083B004468D1E4BB301A92846AFF30080E1
:100FB000F0B101992A46FFF7ADFF0146C0B1FFF736
:100FC0009FFF4B68A064012B2ED0002B01F1040081
:100FD00026DBFFF795FF0023C4E913030368002B0A
:100FE00012DBFFF78DFF00232061184603B030BDF0
:100FF000002323610923184603B030BD0E490F4872
:10100000091AC9100191D5E7C3F30360FFF7B2FFD6
:10101000002814BF002309232061184603B030BD07
:101020000123C4E91303D9E70023236105231846EC
:1010300003B030BD0000000008E5010838E40108F5
:101040000368DA0710B5044606D49B0700F1480090
:1010500009D500F05FFC2368590709D51A070ED59A
:10106000DB0613D510BD00F04DFC23685907F5D4FD
:1010700004F1D00000F056FC23681A07F0D404F500
:10108000A87000F057FC2368DB06EBD404F5E87089
:10109000BDE8104000F092BC036803B10344184659
:1010A000704700BF09207047704700BF70B5044605
:1010B0000D4608E02B6C63612A4623692146012016
:1010C0009847082808D1296C2046FFF767FF064695
:1010D0000028EFD01CF084F80728FBD13046296C9B
:1010E000FFF7E2FF281D00F001FC00BF2DE9F047EB
:1010F0000C1D054617460FCCADF5727D03AE0FC62D
:101100000FCC0FC60FCC0FC694E80F0002ACD5F879
:101110000C80D5F8189086E80F000023236021E0AA
:10112000236C6B614FF4F07221467AA81BF0F2FF3A
:101130002B697AAA294630469847889BCDE9004911
:101140008246636431462B462A460120C047074643
:10115000F8B94FF4F0727AA920461BF0DBFFBAF120
:10116000080F1CD1216C2846FFF718FF002F08BF7D
:101170000926074618BF0A260028D1D0A36B46F0DF
:101180001001CDE900492A46636401202B46C0477F
:1011900000B1092738460DF5727DBDE8F087BAF138
:1011A000070FF6D13846216CFFF77EFF03A800F049
:1011B0009DFB00BF406C7047F0B5CB6B0B640D1D01
:1011C0000F4606460FCDF9B001AC0FC40FCD0FC4CA
:1011D0000FCD0FC495E80F004FF0FF3584E80F00E6
:1011E000009506E033696A46314698470828044668
:1011F00008D110993046FFF7D1FE0028F2D009201F
:1012000079B0F0BD6846FFF71BFF062CF7D13946D1
:101210003046FFF74BFF00BF30B4DD6BC160826129
:1012200019461D64002230BC60E700BF70B5C66877
:1012300043690B64BEB903690A4604460D4601467C
:1012400002209847072807D0082803D129462046BE
:10125000FFF72CFF1BF0C4FF3046296CFFF724FF7B
:10126000281D00F043FB0122FFF740FF1BF0B8FFF1
:10127000C2681AB1CA6B0A64002237E79CE700BF54
:10128000704700BF836813B10146012018477047BB
:10129000042907D8DFE801F00308060808000BB9A5
:1012A0000F2A03D9022070470120704700EB820209
:1012B00018465368009A1360704700BF10B584B099
:1012C000002303AC0A4600941946FFF7E1FF039898
:1012D00004B010BD042907D8DFE801F003080608B0
:1012E00008000BB90F2A03D902207047012070476C
:1012F00000EB8200009A126842601846704700BFF7
:1013000010B584B004AC002344F8042D0A460094C0
:101310001946FFF7DFFF04B010BD00BFF0B5D36B77
:101320001364151D07460E460FCDADF50F7D17ACA6
:101330000FC40FCD0FC40FCD0FC495E80F004FF0B1
:10134000FF3584E80F00169510E016A8FFF7D8FFC8
:10135000314616A8B84716AA694678B9049B0820F2
:101360009847052804460AD0092807D026996846D8
:10137000FFF714FE6A460C210028E6D0092416A8BF
:10138000FFF75EFE20460DF50F7DF0BD2DE9F04F15
:101390000D46C96C89B00C1D164600F0030B0A6897
:1013A00006941F46002B68D0130CD9B212048DF896
:1013B0001D30022304EB810405928DF81C302B6D47
:1013C000BBF1020F08BFAC6B13F0010346D10193D0
:1013D00000F008030093D4F80090B9F1000F00F07A
:1013E000F380022F45D0B4F80090B4F802800434A2
:1013F000AB6C28F0010A0F2130469A44FFF75EFFDC
:10140000824534D829F001035344834294BF00201D
:1014100001204FEA480808F0020809F0010948EAEB
:101420000908B8F1010F3AD031D3B8F1020F1AD13F
:10143000236823F0004ABBF1000F66D130B1009A57
:10144000002A6CD0BAF1000F00F09080002B00DA77
:1014500004340AF1010304EB8304BCE7304605A918
:1014600000F046FB78B1092009B0BDE8F08F0020FC
:10147000CFE7D4F804800834BAE7120203230592B8
:10148000ADF81C309BE7082009B0BDE8F08FBBF138
:10149000000F02D0002840F0B48004349BE7BBF179
:1014A000000F18D1A8B1D4E90023991C4FEAD272D9
:1014B000D9D005F158010133049100F0B580201D09
:1014C000FFF7EAFD04AB01462846AFF30080002891
:1014D00067D108347FE70D213046D5F82080FFF72B
:1014E000EDFE8045F5D1AB6A9C42F2D12046FFF774
:1014F00007FD0F2102463046FFF702FF30462A461D
:101500000021FFF7FDFE0720AEE70D213046D5F89C
:101510002080FFF7D3FE804532D0236896E7BAF1EA
:10152000000F23D005F1580304F10408CDF808B0EA
:10153000DDF800900397A3461C4602E05745B946E4
:1015400040D040460494FFF7A7FD04AB01460022BB
:101550002846AFF3008009F1010708F104080028CC
:10156000ECD0D1455C46DDE902B7D6D130460D213D
:10157000FFF7A4FE049B2862C5E90934062073E73F
:10158000AB6A9C42C9D104224FF00008A318C5E9F8
:101590000AA8C5E90C23236843454DDB01230193C9
:1015A00057E780460D213046FFF788FEB8F1020F5D
:1015B00028623ED12B46049A43F82C2F6B62AC6212
:1015C000062051E75C46D1E705A9304600F090FAC5
:1015D00000287FF448AF019B002B3FF454AF0F214C
:1015E0003046FFF76BFE0E2102463046FFF788FEBD
:1015F00030461A4A0F21FFF783FE072009B0BDE8E5
:10160000F08F2046FFF77CFC04340746AC63284685
:10161000AFF3008000283FF426AF30463A460F2152
:10162000FFF76EFE07201FE730460D21FFF746FE4D
:101630002862049B6B62C2E70AF1010004EB8000A0
:10164000FFF75EFC0F2102463046FFF759FE304699
:101650002A464146FFF754FE072005E70000000038
:10166000002393E6012391E602238FE62DE9F04162
:101670000546C4B0042906D8DFE801F04D2B050368
:101680000900032B5FD0022044B0BDE8F081002B9D
:10169000F9D1102AF7D82B68DC0600F1F48022ACCF
:1016A0002046019200F094F9A86B019A00230126CC
:1016B00006FA03F1114203D0016844F82310043004
:1016C0000133042BF4D1A863204600F077F9002001
:1016D000DAE7012B4FEA124697B252D0052BD2D14E
:1016E00006EB0708B8F1200FCDD80F2E40F29980F5
:1016F000B846002F40F0DB80AA6BAA630F2E40F2A1
:10170000BE80B8F1000F02D002A800F00BF9002053
:1017100044B0BDE8F081002BB5D1AC6B97B2281D69
:10172000012606FA03F1394203F1010302D02168D0
:1017300001600434102B00F10400F2D112F40050C7
:10174000E5D1AC63A0E7160C97B2F319102B9AD829
:101750002B681A075DD422AC204600F00DF904EB8B
:10176000C601AB6B3FB103EBC702186841F8040B2D
:1017700004339342F9D12046AB6300F0DBF800203C
:1017800082E7F219102A3FF67EAF0F2E3FF67BAFAD
:101790002A68D10708D5284622F0030240F8482BD2
:1017A000019300F0B3F8019B019322AC204600F0B6
:1017B000ADF8A96B019B002F00F095807F0004EB32
:1017C000C6044FF00008043C01EB870251F8040BFB
:1017D00044F8040F9142F9D1B8F1000F0FD002ACD8
:1017E000102E314638BF102104EBC101843902EBC1
:1017F000C80452F8040B41F8040F9442F9D1012BAC
:101800007FF47BAF22AC0432AA63204600F07AF862
:101810007DE723F008032B6005F5A87000F0ACF815
:1018200099E7B8F1100F2A6843D9D007A8F110083A
:101830000BD5284622F0010242F0020240F8482B64
:10184000019300F06BF82A68019B510725D40F2EF5
:1018500004D822A8019300F061F8019B019302AC27
:10186000204600F063F8C6F110010029AA6B019B25
:10187000B6DD22AC4F0004EBC6041146A3E722A854
:1018800000F048F83DE723F010032B6005F5E87001
:10189000019200F09DF8019A01E7284622F0040227
:1018A00040F8D02B019300F041F8019BCFE72A6864
:1018B000CBE7D0070AD5284622F0010242F0020207
:1018C00040F8482B019300F029F8019B019322ACCA
:1018D000204600F023F8B846A96B019B002F7FF447
:1018E0006DAF0A4609E70A468DE700BF00F13401F3
:1018F00091E838009C46A6464CF8045D90E8FF0F3E
:10190000E54600BD90EC210B704700BF80EC210B39
:10191000704700BF90EC200B704700BF80EC200B9D
:10192000704700BFD0EC200B704700BFC0EC200B0D
:10193000704700BFF0EC0201F0EC0211F0EC022164
:10194000F0EC0231F0EC0241F0EC0251F0EC0261FB
:10195000F0EC0271F0EC0281F0EC0291F0EC02A1EB
:10196000F0EC02B1F0EC02C1F0EC02D1F0EC02E1DB
:10197000F0EC02F1704700BFE0EC0201E0EC021174
:10198000E0EC0221E0EC0231E0EC0241E0EC02513B
:10199000E0EC0261E0EC0271E0EC0281E0EC02912B
:1019A000E0EC02A1E0EC02B1E0EC02C1E0EC02D11B
:1019B000E0EC02E1E0EC02F1704700BFB0FC018115
:1019C000B0FC0191B0FC01A1B0FC01B1704700BFB7
:1019D000A0FC0181A0FC0191A0FC01A1A0FC01B12F
:1019E000704700BFEC4600B52DE900502DE9FF1F00
:1019F0004FF000032DE90C0001A9FFF7DDFBDDF836
:101A000040E012B0704700BFEC4600B52DE9005031
:101A10002DE9FF1F4FF000032DE90C0001A9FFF78E
:101A200005FCDDF840E012B0704700BFEC4600B5A1
:101A30002DE900502DE9FF1F4FF000032DE90C00A8
:101A400001A9FFF715FCDDF840E012B0704700BFB8
:101A5000EC4600B52DE900502DE9FF1F4FF00003C3
:101A60002DE90C0001ABFFF7D7FBDDF840E012B029
:101A7000704700BFEC4600B52DE900502DE9FF1F6F
:101A80004FF000032DE90C0001AAFFF747FCDDF839
:101A900040E012B0704700BF027A7AB9437AA3B12E
:101AA0004268013B10B4437213680321141D017294
:101AB0001A024460026010BC180E70470368013AB5
:101AC00002721A020260180E7047B020704700BF01
:101AD00000B585B003AA0023009219460C22FFF737
:101AE000D7FB039805B05DF804FB00BFF0E700BF2B
:101AF0002DE9F043054685B00E464FF0000830460C
:101B0000FFF7CAFFB028044600F0B180070620D5D1
:101B100000F0F003802B65D0902B36D0A02B78D02E
:101B2000B02B47D0C02B00F08A8000F0F803D02BF8
:101B30000BD100F00702013242F4002205230121FB
:101B40002846FFF793FD0028D9D0092005B0BDE84D
:101B5000F0830DF10C09002319468700CDF80090A1
:101B60000D222846FFF794FBFFB2039BCDF80090AF
:101B7000043760064CBFDF1BFF18002319460D22F7
:101B800028460397FFF7A6FBB9E700F00D030D2BDE
:101B9000DBD003AF002300F00F0219460097284660
:101BA000FFF776FB0023009719460D222846FFF722
:101BB00091FBA4E7B1285FD0B22800F0CC80B32815
:101BC0007ED000F0FC03B42BBFD000F0070201323E
:101BD000012342F4002219462846FFF747FD00285A
:101BE0008DD0B2E73046FFF757FF24020443B4F527
:101BF000004FAAD024010023A2B219462846FFF7BD
:101C000035FD0028A1D114F4004F18BF4FF0010892
:101C100075E7C24302F007034FF47F621A410107E0
:101C200002F47F624FF0000348BF42F4804219463D
:101C30002846FFF71BFD00283FF461AF85E7C62863
:101C400051D0C7285AD000F0F803C02B69D0C8285B
:101C500075D0C9287FF479AF3046FFF71DFF020326
:101C600000F00F0002F470220130024366E7B8F181
:101C7000000F14D0002069E73046FFF70DFF002861
:101C80003FF463AF10F0F0037FF45FAF02461946F4
:101C90002846FFF7EBFC00283FF431AF55E703ACD3
:101CA00043460E22414600942846FFF7F1FA00947D
:101CB000284643460F224146FFF70CFB404645E7C6
:101CC0003046FFF7E9FE010300F00F0001F4702138
:101CD000421C01230A4328461946FFF7C7FC002887
:101CE0003FF40DAF31E73046FFF7D6FE010300F0B9
:101CF0000F0001F47021421C0323EBE73046FFF78D
:101D0000CBFE024600283FF420AF10F0F0037FF432
:101D10001CAF04212846FFF7A9FC00283FF4EFAED2
:101D200013E700F00F020132032342F42022194688
:101D30002846FFF79BFC00283FF4E1AE05E730465C
:101D4000FFF7AAFE00F0F00200F00F03103201339B
:101D500043EA0232F2E600230DF10C090D22194686
:101D6000CDF800902846FFF793FA3046FFF794FE2F
:101D700002064FF002070CD5039B00F07F00B8402D
:101D8000034430460393FFF787FE030607F1070776
:101D9000F2D4039BCDF8009000F07F0403F50172AC
:101DA000BC400023144419460D2228460394FFF733
:101DB00091FAA4E610B5C36C84B05A6803208DF87C
:101DC0000C00DC798DF80D4012020833084601A999
:101DD00001920293FFF78CFE04B010BD08B5FFF727
:101DE00085FE806C08BD00BF08B5FFF77FFEC06CA4
:101DF000C37900EB8300083008BD00BF08B51BF0B5
:101E0000EFF900BF08B5FFF7F9FF00BF704700BF4B
:101E100080B483B000AF78607B68FF221A777B685C
:101E200000221A627B6800229A84114BFF221A70EA
:101E3000104BFF221A70104BFF221A707B68002291
:101E40001A757B681A7D7B68DA747B68DA7C7B683C
:101E50009A747B689A7C7B685A747B685A7C7B682E
:101E60001A747B6818460C37BD4680BC704700BFAB
:101E700048020020490200204A02002080B485B0B8
:101E800000AF78604FF0B0431A6E4FF0B0417B68FE
:101E900013430B664FF0B0431A6E7B681340FB6030
:101EA000FB6800BF1437BD4680BC704780B483B068
:101EB00000AF78604FF0B0431A6E7B68DB434FF0A1
:101EC000B04113400B6600BF0C37BD4680BC704765
:101ED00080B500AF234B244A1A60224B4FF00042DA
:101EE0005A60204B00229A601E4B0022DA601D4B84
:101EF00000221A611B4B04225A611A4B00221A76E7
:101F0000184B00225A76174B00229A76154B012265
:101F1000DA61144B002283F82020124B00225A620F
:101F2000104B00229A620F4B002283F82C200D4B9D
:101F30004FF480521A630B4B07225A63094B072256
:101F40009A63084B002283F83C20064B0022DA6497
:101F5000044802F043F80346002B01D000F03AFC9D
:101F600000BF80BD201800200024014080B582B051
:101F700000AF78607B681B68054A934203D14FF439
:101F80000070FFF77BFF00BF0837BD4680BD00BF74
:101F90000024014080B582B000AF78607B681B6888
:101FA000054A934203D14FF40070FFF77FFF00BF53
:101FB0000837BD4680BD00BF0024014080B400AF9B
:101FC000034B044A1A6000BFBD4680BC704700BF87
:101FD000201800200024014080B586B002AF002305
:101FE000FB810023BB6000F071F80346FB803048A2
:101FF00000F0A0F8B8602F4B1A882F4B1B889A422C
:1020000026D02C4B1A882C4B1B889A421CD0FB885C
:10201000BA6802FB03F39B08284AA2FB03235B096F
:102020001A46254B1B88D31A642202FB03F2214B6C
:102030001B881946204B1B88CB1A92FBF3F39BB2EB
:102040001E339BB21BB201E047F6FF73FB811CE01D
:10205000FB88BA6802FB03F2194BA3FB0213D21AE6
:1020600052081344DB0A4FF47A7202FB03F3A3F520
:102070003923A3F50C63134A82FB03129212DB1778
:10208000D31A9BB21E339BB2FB81B7F90E3000937B
:102090000D4B01220021012019F078FCB7F90E3018
:1020A0001B02FB81B7F90E3018461037BD4680BDC4
:1020B000001000B0C875FF1FA875FF1F9F00EE0934
:1020C00001011000AD8BDB6890D2010880B582B0B1
:1020D00000AF0023FB8000233B60134800F02AF888
:1020E00038603B68002B02D10023FB8016E00F4BC9
:1020F0001B884FF6FF7293420BD00C4B1B881A467D
:1021000040F6E44303FB02F23B68B2FBF3F3FB80CF
:1021100004E0074A3B68B2FBF3F3FB80FB881846F8
:102120000837BD4680BD00BF002000B4AA75FF1F60
:10213000D8084C0080B586B000AF786000237B6182
:1021400007F1080300221A605A609A60FFF7C0FE88
:102150001A4802F008FD0346002B01D000F03AFBBC
:102160007B68BB600023FB6000233B6107F1080331
:102170001946124802F086FA0346002B01D000F0FF
:1021800029FB0E4802F06AF90346002B01D000F04B
:1021900021FB4FF0FF31094802F0D8F9074802F05F
:1021A000A3F9064802F062FA7861044802F0DAF80E
:1021B0007B6918461837BD4680BD00BF2018002037
:1021C00080B485B000AF78604FF0B043DA6C4FF068
:1021D000B0417B681343CB644FF0B043DA6C7B684B
:1021E0001340FB60FB6800BF1437BD4680BC7047DE
:1021F00080B588B000AF0346FB7107F10C030022E5
:102200001A605A609A60DA601A610220FFF7D8FFFC
:10221000FB79124A32F81330FB6001233B61002343
:102220007B610223BB61FB790D4A52F8233007F131
:102230000C021146184603F063FAFB79084A52F87B
:102240002300FB79054A32F813300022194603F0C7
:1022500089FC002318462037BD4680BD84DC010878
:102260000000002080B582B000AF0346FB71FB790F
:10227000074A52F82300FB79064A32F8133001224C
:10228000194603F06FFC002318460837BD4680BD91
:102290000000002084DC010880B582B000AF034656
:1022A000FB71FB79074A52F82300FB79064A32F8A2
:1022B00013300022194603F055FC00231846083756
:1022C000BD4680BD0000002084DC010880B582B0DE
:1022D00000AF0346FB71FB79074A52F82300FB79F4
:1022E000064A32F81330194603F053FC002318460F
:1022F0000837BD4680BD00BF0000002084DC010817
:1023000080B588B000AF03460A46FB711346BB7127
:1023100007F10C0300221A605A609A60DA601A61B1
:10232000FB79002B03D10120FFF74AFF0CE0FB797A
:10233000022B03D10120FFF743FF05E0FB79012BBE
:1023400002D10420FFF73CFFFB79284A32F8133012
:10235000FB6001237B610223BB61BB79002B0CD1A5
:1023600000233B61FB79224A52F8233007F10C022B
:102370001146184603F0C4F933E01E4B3B61FB796C
:102380001B4A52F8233007F10C021146184603F09D
:10239000B7F9FB79DB00184A9818FB79174A52F80D
:1023A0002330194603F099F9FB79DB00124A98189B
:1023B000FB79134A52F823301A46002103F074F9CE
:1023C000FB79104AD056FB790F4A52F8233000228D
:1023D000194602F01AFDFB790A4AD356184602F054
:1023E0002EFD002318462037BD4680BD8CDC010839
:1023F0000C000020000021108418002098DC010847
:102400001800002094DC01082400002080B483B070
:1024100000AF0346FB7100BF0C37BD4680BC704760
:1024200080B500AF0020FFF7F1FF00BF80BD80B591
:1024300000AF0120FFF7EAFF00BF80BD80B500AF0D
:102440000220FFF7E3FF00BF80BD80B485B000AF7E
:1024500078604FF0B0439A6C4FF0B0417B68134303
:102460008B644FF0B0439A6C7B681340FB60FB6851
:1024700000BF1437BD4680BC704780B500AF042054
:10248000FFF7E3FF0120FFF7E0FF002202210F200A
:1024900002F0BBFC0F2002F0D2FC00BF80BD80B474
:1024A00085B000AF78604FF0B043DA6C4FF0B041C8
:1024B0007B681343CB644FF0B043DA6C7B68134006
:1024C000FB60FB6800BF1437BD4680BC704700004E
:1024D00080B586B000AF3B1D00221A605A609A603A
:1024E000DA601A610120FFF7DAFF0220FFF7D7FF59
:1024F0000420FFF7D4FF00224FF47E41264803F06A
:1025000031FB00223821254803F02CFB4FF47E4399
:102510007B600123BB600023FB6000233B613B1D0C
:1025200019461D4803F0ECF838237B600123BB609B
:102530000023FB6000233B613B1D1946174803F055
:10254000DFF803237B60164BBB600023FB603B1D61
:1025500019464FF0904003F0D3F840237B60104BB6
:10256000BB600023FB603B1D19460C4803F0C8F814
:1025700000220021062002F048FC062002F05FFC49
:1025800000220021072002F040FC072002F057FC47
:1025900000BF1837BD4680BD000400480008004851
:1025A0000000111080B483B000AF78604FF060433A
:1025B000D3F8803E03F00103002B09D04FF06043B5
:1025C000D3F8003E03F00103002B01D0012300E00B
:1025D0000023002B10D04FF060431B68002B0CBF72
:1025E00001230023DBB2002B01D000BFF3E77A68A0
:1025F0004FF06043D2B21A707B6818460C37BD4664
:1026000080BC704780B483B000AF78604FF0B043B7
:10261000D3F8903023F018027B684FF0B041134399
:10262000C1F8903000BF0C37BD4680BC704780B504
:1026300082B000AF78607B681B78002B07D07B6886
:102640005A1C7A601B781846FFF7ACFFF3E700BF0F
:102650000837BD4680BD000080B582B002AF01F0F2
:10266000D5FA00F057F8FFF733FF254B1B685A1CCB
:1026700023490A601946234819F0A8FC204B1B681F
:102680005A1C1F490A601A461E491F4819F01AFDB4
:102690001D48FFF7CCFF7820FFF784FF0A20FFF7E3
:1026A00081FF174B1B685A1C15490A600093174B92
:1026B00001220021022019F069F907F085FC104B76
:1026C0001B685A1C0E490A60B3F57A7FCCBF012300
:1026D0000023DBB2002B10D04FF400410C4803F074
:1026E00058FA074B1B680093084B01220021022077
:1026F00019F04CF9024B00221A6007F073FCDEE778
:102700004C020020E8D20108D00200201CD30108AE
:102710000004004880B59AB000AF07F120034822BA
:102720000021184619F04AFC3B1D00221A605A602D
:102730009A60DA601A615A619A610020FFF762FFBD
:10274000234B1B6823F4C063214A43F400731360D6
:102750001F4B1B6803F4C0633B603B6824233B6250
:102760008123FB6201233B6400237B64B023BB64B1
:102770000023FB6407F12003184603F0DDFD034648
:10278000002B14BF01230023DBB2002B01D000F08B
:1027900021F84F237B600023BB600023FB600023F4
:1027A0003B6100237B610023FB613B1D0221184636
:1027B00004F05CF90346002B14BF01230023DBB2B5
:1027C000002B01D000F006F800BF6837BD4680BD81
:1027D0000004005880B400AF72B6FEE780B582B046
:1027E00000AF786039607B68012B07D13B684FF6FA
:1027F000FF72934202D10348FFF70AFB00BF08377C
:10280000BD4680BD5002002080B500AF4FF6FF717D
:102810000120FFF7E3FF80BD80B400AF4FF0B0436D
:10282000D3F890304FF0B04243F40043C2F89030F8
:1028300000BFBD4680BC704780B485B000AF7860F3
:102840004FF0B0439A6D4FF0B0417B6813438B65F6
:102850004FF0B0439A6D7B681340FB60FB6800BF8C
:102860001437BD4680BC704780B58CB000AF3B1DAF
:102870002C220021184619F0A1FB224B224A1A6093
:10288000204B1F229A601F4B00221A611D4B002211
:102890005A611C4B00229A611A4B4FF08042DA6158
:1028A000184B00221A62174B4FF480725A62154877
:1028B00004F0DEFD0346002B01D0FFF78BFF11482B
:1028C00005F0B8F80346002B01D0FFF783FF002383
:1028D0003B620023BB600023BB614FF00053FB61F0
:1028E0004FF48073FB623B1D01221946054804F03A
:1028F00039FE0346002B01D0FFF76CFF00BF3037D5
:10290000BD4680BD9C1800200028004080B590B0D6
:1029100000AF786007F1080338220021184619F04B
:102920004DFB7B681B68164A934225D14FF48033D8
:10293000BB604FF48073FB6307F10803184604F093
:102940007DFC0346002B01D0FFF744FFFFF764FF37
:102950004FF48060FFF770FF00220021022002F098
:1029600054FA022002F06BFA002200212A2002F021
:102970004CFA2A2002F063FA00BF4037BD4680BD02
:102980000028004080B400AF034B0122C3F8882028
:1029900000BFBD4680BC70470004005880B400AF43
:1029A00000BFBD4680BC704780B400AF00BFBD46CD
:1029B00080BC704780B500AF01F05AF9FFF7E2FF25
:1029C000012003F0A9F900BF80BD80B500AF01F080
:1029D0005DF901F081F800BF80BD80B500AF01F066
:1029E00047F90121002003F013F900BF80BD80B535
:1029F00000AF01F04BF900BF80BD80B400AF00BF55
:102A0000BD4680BC704780B400AFFEE780B400AF25
:102A1000FEE780B400AFFEE780B400AFFEE780B40D
:102A200000AFFEE780B400AF00BFBD4680BC70477A
:102A300080B400AF00BFBD4680BC704780B400AF1B
:102A400000BFBD4680BC704780B500AF01F0FEF806
:102A500000BF80BD80B500AF024805F027F800BF79
:102A600080BD00BF9C18002080B500AF012003F09E
:102A7000A9F800BF80BD80B500AF022003F0A2F826
:102A800000BF80BD80B500AF024802F06FFC00BF00
:102A900080BD00BFE018002080B500AF024805F0FF
:102AA0001FFE00BF80BD00BF4019002080B500AFF1
:102AB000024804F0ABFE00BF80BD00BF9C180020A0
:102AC00080B500AF024805F059FB00BF80BD00BFD4
:102AD000D418002080B485B000AF78604FF0B043C8
:102AE0005A6E4FF0B0417B6813434B664FF0B043D2
:102AF0005A6E7B681340FB60FB6800BF1437BD460D
:102B000080BC704780B500AF064B08221A600548AC
:102B100005F0B8F80346002B01D0FFF75BFE00BFBD
:102B200080BD00BFD418002080B582B000AF7860AF
:102B30000120FFF7CFFF00220021322002F065F9CB
:102B4000322002F07CF900BF0837BD4680BD80B45A
:102B500083B000AF78604FF0B0439B6823F400422D
:102B60004FF0B0417B6813438B6000BF0C37BD460C
:102B700080BC704780B485B000AF78604FF0B04340
:102B8000DA6C4FF0B0417B681343CB644FF0B04335
:102B9000DA6C7B681340FB60FB6800BF1437BD46EE
:102BA00080BC704780B483B000AF78604FF0B04312
:102BB000DA6C7B68DB434FF0B0411340CB6400BF5D
:102BC0000C37BD4680BC704780B400AF024B1B6819
:102BD0001846BD4680BC70478075FF1F80B400AFAB
:102BE000034B1B68DBB21846BD4680BC704700BF74
:102BF0008475FF1F80B400AF034B1B681B0A184687
:102C0000BD4680BC704700BF8475FF1F80B500AF14
:102C1000134819F04FFA0020FFF799FF18F00EFC47
:102C200000F02EF900F0F0F918F094FE0D4818F0BD
:102C30002FFF022018F03AFFFFF7C0F900F09AFAD0
:102C400017F052FE0121012017F08CFE0121012016
:102C500017F05AFE044819F02DFA00BF80BD00BFDE
:102C60002CD30108412E000848D3010880B500AFDD
:102C700017F0A6FE00BF80BD80B584B002AF002370
:102C8000FB71FFF723FA0346BB80BB8840F6B832DE
:102C9000934202D9FE23FB7114E0BB88B3F5E16FC8
:102CA00002D20023FB710DE0BB88A3F5E1631A4655
:102CB0001346DB019B1A5B001A46094BA3FB022358
:102CC000DB09FB71FB790093064B012200210220F6
:102CD00018F05CFEFB7918460837BD4680BD00BF82
:102CE000B5814E1B6CD3010880B582B000AF0023C4
:102CF000FB80FFF771F90346002B00DAFF331B124C
:102D00001BB2FB80FB8818460837BD4680BD90B5D6
:102D100087B000AF786000237B61FFF755FF7861D3
:102D20007B69B3F1FF3F38D100F0BEFF044600F0ED
:102D3000CFFF034623443B6100F0C0FFF8603B69CE
:102D40001A0E7B680733D2B21A703B691A0C7B6883
:102D50000633D2B21A703B691A0A7B680533D2B2C5
:102D60001A707B6804333A69D2B21A70FB681A0E83
:102D70007B680333D2B21A70FB681A0C7B6802338B
:102D8000D2B21A70FB681A0A7B680133D2B21A7089
:102D9000FB68DAB27B681A7031E07B6807337A69C6
:102DA000D2B21A707B691A0A7B680633D2B21A70E3
:102DB0007B691A0C7B680533D2B21A707B691A0ED4
:102DC0007B680433D2B21A70FFF708FF78617B6822
:102DD00003337A69D2B21A70FFF70CFF78617B680F
:102DE00002337A69D2B21A707B691A0A7B6801339E
:102DF000D2B21A707B691B0CDAB27B681A7000BF02
:102E00001C37BD4690BD90B583B000AF00237B60FA
:102E1000FFF7DAFE78607B68B3F1FF3F0BD100F07B
:102E200043FF044600F04AFF03465C4000F050FFB9
:102E3000034663407B607B6818460C37BD4690BDF7
:102E400080B586B002AF7860396007F10803184694
:102E500017F0C2FEBB68B7F90C200092074A102198
:102E6000786800F071F87868FDF78AF903469AB23D
:102E70003B681A8000BF1037BD4680BD78D301087B
:102E800080B586B000AF244819F014F93B1D00222C
:102E90001A605A609A60DA601A610120FFF76AFED0
:102EA0000220FFF767FE0420FFF764FE8020FFF793
:102EB00061FE0323BB600023FB6049F6FF737B6068
:102EC0003B1D19464FF0904002F01AFC4FF6FF737D
:102ED0007B603B1D1946114802F012FC3B1D194650
:102EE0000F4802F00DFC3B1D19460E4802F008FC8D
:102EF0000120FFF757FE0220FFF754FE0420FFF7E2
:102F000051FE8020FFF74EFE034819F0D3F800BFB2
:102F10001837BD4680BD00BF84D3010800040048B7
:102F200000080048001C004880B500AF01210220C5
:102F300017F0EAFC00BF80BD80B500AF0021022081
:102F400017F0E2FC00BF80BD0CB480B584B000AFC8
:102F50007860396007F11C03FB603968FB68BA6967
:102F6000786817F0A7FF00BF1037BD46BDE8804066
:102F700002B0704780B483B000AF78600023184679
:102F80000C37BD4680BC704780B500AF00F072FAC8
:102F90000346184680BD80B582B000AF78607B687C
:102FA000184600F0D2FA00BF0837BD4680BD80B495
:102FB00085B000AF78604FF0B043DA6C4FF0B041AD
:102FC0007B681343CB644FF0B043DA6C7B681340EB
:102FD000FB60FB6800BF1437BD4680BC7047000033
:102FE00080B483B000AF7860064BD3F890200549D9
:102FF0007B681343C1F8903000BF0C37BD4680BCDE
:10300000704700BF0008005880B586B000AF3B1D78
:1030100000221A605A609A60DA601A610220FFF793
:10302000C6FF0220FFF7C3FF0220FFF7C0FF022008
:10303000FFF7BDFF0123BB600123FB6003233B615E
:103040004FF480537B603B1D1946354802F058FB16
:103050004FF400537B603B1D1946314802F050FB92
:103060004FF480437B603B1D19462D4802F048FB1E
:103070004FF480637B603B1D1946294802F040FBFA
:1030800000224FF48051264802F06CFD00224FF4DC
:103090000051234802F066FD00224FF48041204891
:1030A00002F060FD00224FF480611D4802F05AFDDD
:1030B0000223BB600023FB60F0237B600D237B6158
:1030C0000120FFF774FF3B1D19464FF0904002F0BE
:1030D00017FB0223BB600023FB604FF480537B602F
:1030E00006237B610120FFF762FF3B1D19464FF06D
:1030F000904002F005FB4FF080424FF080710020BD
:1031000003F0F6FD4FF48040FFF76AFF00F0EAFDA0
:1031100000F0EEFD00F0F2FD00BF1837BD4680BDA7
:103120000004004880B487B000AF78600C4B7B612E
:103130000C4B3B610C4BFB607B687A699A607B6847
:103140003A695A607B68FA681A607B68074ADA60F5
:103150007B68074A1A6100BF1C37BD4680BC7047B8
:10316000000048420000904100007A440D093E00F2
:10317000AB03050080B400AF00BFBD4680BC704704
:1031800080B400AF01231846BD4680BC704780B5AF
:1031900082B000AF7860396018F0E6FE0246162370
:1031A00013604FF0FF3318460837BD4680BD80B529
:1031B00082B000AF78604FF0FF317868FFF7E7FF2B
:1031C000FEE780B586B000AFF860B9607A60002392
:1031D0007B610AE0AFF300800146BB685A1CBA600D
:1031E000CAB21A707B6901337B617A697B689A4243
:1031F000F0DB7B6818461837BD4680BD80B586B0C9
:1032000000AFF860B9607A6000237B6109E0BB68B9
:103210005A1CBA601B781846AFF300807B690133F3
:103220007B617A697B689A42F1DB7B6818461837C4
:10323000BD4680BD80B483B000AF78604FF0FF33EF
:1032400018460C37BD4680BC704780B483B000AFD1
:10325000786039603B684FF400525A60002318468A
:103260000C37BD4680BC704780B483B000AF786037
:10327000012318460C37BD4680BC704780B485B02A
:1032800000AFF860B9607A60002318461437BD4675
:1032900080BC704780B586B000AF7860144A154B8B
:1032A000D31A7B617B693B61134B1B68002B02D1F6
:1032B000114B124A1A60104B1A687B6813443A6922
:1032C0009A4207D218F050FE02460C2313604FF0CA
:1032D000FF3309E0084B1B68FB60074B1A687B68EB
:1032E0001344054A1360FB6818461837BD4680BD75
:1032F0000080002000080000D0030020781A002081
:1033000080B400AF00BFBD4680BC704780B483B0BE
:1033100000AF78607B689B6818460C37BD4680BC60
:103320007047000080B582B000AF0023FB71144BE2
:103330001B7883F00103DBB2002B1BD0114B4FF045
:10334000FF321A63FFF790FA00F056F84FF48071DD
:103350000C4804F005FA0B4B4FF0FF321A63094892
:1033600004F036FB002000F0A3F900F05FF8044BF6
:1033700001221A70FB7918460837BD4680BD00BF90
:10338000D40300209C18002080B58EB000AF786078
:10339000002387F8373007F108032C220021184654
:1033A00018F00CFE00F028F8114B1B687A681344E3
:1033B0007B6000237B627B68DB43FB600023FB6157
:1033C0004FF000533B624FF480733B6307F10803F7
:1033D00001221946074804F0C5F80346002B01D026
:1033E000FFF7F8F997F8373018463837BD4680BDF3
:1033F000D80300209C18002080B582B000AF0023C5
:10340000FB71084B0122DA654FF48071064804F025
:10341000A7F9054B4FF0FF321A63FB7918460837BE
:10342000BD4680BD002800409C18002080B500AF3C
:1034300000F05EF90246034B1A60024B1B68184607
:1034400080BD00BFD803002080B400AF024B1B68D2
:103450001846BD4680BC7047D803002080B500AF39
:1034600000F046F90246024B1B68D31A184680BD8D
:10347000D803002080B500AF054B1B78002B03D08C
:1034800000F036F9034600E00023184680BD00BF77
:10349000D403002080B400AF03231846BD4680BC8F
:1034A0007047F0B583B000AF78607B684FF00004E0
:1034B0009E0D9D024FF47A724FF00003284631466C
:1034C000FDF7A0FB03460C4618460C37BD46F0BD81
:1034D000F0B482B000AF78607B681D464FF0000604
:1034E0002B4634464FF000014FF00002620142EAE1
:1034F000D36259010B4614465B1B64EB06044FF084
:1035000000014FF00002A20042EA937299000B46BC
:1035100014465B1944EB06044FF000014FF0000223
:10352000E20042EA5372D9000B461446194622467D
:103530004FF000034FF000048B0A43EA8253940AD1
:1035400018460837BD46F0BC704780B584B000AF60
:1035500078607868FFF7A5FFF86000F0C9F8B860F8
:1035600000E000BF00F0C4F80246BB68D31AFA6856
:103570009A42F6D800BF1037BD4680BD80B582B0F4
:1035800000AF786018F0A6F800BF0837BD4680BDD0
:1035900080B584B000AF786000F09AF8F860FB68FE
:1035A0000133184600F084F800BF1037BD4680BDD7
:1035B0002DE9904888B000AF786000F099F8F86184
:1035C00000F086F8B861BB6919464FF000024FF071
:1035D000000B4FF0000C8C464FF0000BFA691146BF
:1035E0004FF000021BEB01034CEB0204C7E904346B
:1035F000D7E904124FF000034FF000048B0A43EAAE
:103600008253940AFB603B699B464FF0000C40F2EA
:10361000FF314FF000020BEA01030CEA0204C7E994
:1036200004343B691846FFF753FF03469AB27B68A0
:103630001A80FB6818462037BD46BDE89088000018
:1036400080B582B000AF78607A680021034804F04A
:1036500051FA00BF0837BD4680BD00BF9C1800204E
:1036600080B582B000AF78607A680121034804F029
:1036700041FA00BF0837BD4680BD00BF9C1800203E
:1036800080B500AF0021034804F04CFA0346184609
:1036900080BD00BF9C18002080B500AF0121034809
:1036A00004F040FA0346184680BD00BF9C18002075
:1036B00080B582B000AF78607A680221034804F0D8
:1036C00019FA00BF0837BD4680BD00BF9C18002016
:1036D00080B582B000AF0221044804F023FA78607C
:1036E0007B6818460837BD4680BD00BF9C18002087
:1036F00080B500AF0348FFF709FE0346DB431846D9
:1037000080BD00BF0028004080B485B000AF786065
:103710004FF0B043DA6C4FF0B0417B681343CB6499
:103720004FF0B043DA6C7B681340FB60FB6800BF6E
:103730001437BD4680BC704780B485B000AF786058
:103740004FF0B0439A6D4FF0B0417B6813438B65E7
:103750004FF0B0439A6D7B681340FB60FB6800BF7D
:103760001437BD4680BC704780B483B000AF78602A
:103770004FF0B0439A6D7B68DB434FF0B04113408C
:103780008B6500BF0C37BD4680BC704780B500AF6D
:10379000224B234A1A60214B4FF4E1325A601F4BEF
:1037A00000229A601D4B0022DA601C4B00221A6135
:1037B0001A4B0C225A61194B00229A61174B0022B6
:1037C000DA61164B00221A62144B00225A62134B24
:1037D00000229A62114804F084FE0346002B01D0B7
:1037E000FEF7F8FF00210D4806F0EAFA0346002B29
:1037F00001D0FEF7EFFF0021084806F01FFB03464B
:10380000002B01D0FEF7E6FF044806F09EFA0346BF
:10381000002B01D0FEF7DEFF00BF80BD4019002065
:103820000044004080B596B000AF786007F14403D3
:1038300000221A605A609A60DA601A6107F10C037C
:1038400038220021184618F0B9FB7B681B68334A00
:1038500093425FD10223FB60314B7B6107F10C0384
:10386000184603F0EBFC0346002B01D0FEF7B2FF35
:103870004FF40030FFF760FF0120FFF745FF0C23F6
:103880007B640223BB640023FB6403233B650723A3
:103890007B6507F1440319464FF0904001F030FF7B
:1038A000204B214A1A601F4B14225A601D4B1022D4
:1038B0009A601C4B0022DA601A4B80221A61194B65
:1038C00000225A61174B00229A61164B0022DA61DE
:1038D000144B00221A62134801F0CEFA0346002B63
:1038E00001D0FEF777FF10210E4801F005FE0346D8
:1038F000002B01D0FEF76EFF7B680A4A9A67094ADF
:103900007B68936200220221252001F07EFA2520A7
:1039100001F095FA00BF5837BD4680BD0044004015
:1039200004000C00E01800205800024080B582B06E
:1039300000AF78607B681B680B4A934210D14FF44C
:103940000030FFF711FF0C214FF0904002F03EF8DD
:103950007B689B6F184601F037FB252001F07DFA4C
:1039600000BF0837BD4680BD0044004080B483B02E
:1039700000AF78604FF0B0439A6B4FF0B0417B6876
:1039800013438B6300BF0C37BD4680BC704780B4C7
:1039900083B000AF78604FF0B0439A6B7B68DB4335
:1039A0004FF0B04113408B6300BF0C37BD4680BC65
:1039B0007047000080B483B000AF7860064BD3F846
:1039C000802005497B681343C1F8803000BF0C3765
:1039D000BD4680BC704700BF0008005880B582B06B
:1039E00000AF7860074A7B681360FEF746FDFFF77B
:1039F000CDFE4FF00060FFF7DDFF002318460837CB
:103A0000BD4680BDDC03002080B500AF4FF4003020
:103A1000FFF7ACFF4FF40030FFF7B9FF0448FFF7A2
:103A200085FF0F2001F019FA0023184680BD00BF62
:103A30004019002080B582B000AF78600B467B80D3
:103A40007B881A467968044804F0CAFD00231846AA
:103A50000837BD4680BD00BF4019002080B584B046
:103A600000AF7860194A7B6813604FF40013BB60A5
:103A700007F1080393E80600154806F0EAF800BFCE
:103A8000134B1B68DB6903F48033B3F5803FF7D039
:103A900000BF0F4B1B68DB6903F48003B3F5800F95
:103AA000F7D10B4B1B689A68094B1B6842F48002E4
:103AB0009A60074806F028F901220649044804F0F4
:103AC00060FD002318461037BD4680BDE00300208E
:103AD00040190020D019002080B500AF084804F03C
:103AE00000FD0346002B01D0FEF774FE054801F0EF
:103AF000C3F90346002B01D0FEF76CFE00BF80BD6A
:103B000040190020E018002080B582B000AF786036
:103B1000034B1B680020984700BF0837BD4680BD97
:103B2000DC03002080B582B000AF78600B4B1B68CF
:103B3000002B0AD07B68D3F88C30002B05D1074BC3
:103B40001B68002201210648984701220449786831
:103B500004F017FD00BF0837BD4680BDE00300201C
:103B6000D01900200D488546FFF7CAFB0C480D49C7
:103B70000D4A002302E0D458C4500433C4188C42C8
:103B8000F9D30A4A0A4C002301E013600432A2422E
:103B9000FBD318F0EFF9FEF75FFDFEE70080002091
:103BA000000000202C02002014E501082C02002057
:103BB000781A0020FEE7000080B400AF044B5B6879
:103BC000034A43F00103536000BFBD4680BC704709
:103BD000002004E080B400AF044B5B68034A43F06C
:103BE0000203536000BFBD4680BC7047002004E064
:103BF00080B400AF044B5B68034A43F00403536096
:103C000000BFBD4680BC7047002004E080B582B094
:103C100000AF0023FB71032001F0ECF803F02CF956
:103C20000246094B1A600F20FFF7A4F90346002B48
:103C300002D00123FB7101E0FEF7DFFEFB7918469D
:103C40000837BD4680BD00BF3000002080B400AF03
:103C5000054B1B781A46054B1B681344034A136037
:103C600000BFBD4680BC704738000020D41900203A
:103C700080B400AF044B1B68034A23F002031360B7
:103C800000BFBD4680BC704710E000E080B400AFCC
:103C9000044B1B68034A43F00203136000BFBD4698
:103CA00080BC704710E000E080B400AF024B1B689E
:103CB0001846BD4680BC70479075FF1F80B400AFAA
:103CC000024B1B681846BD4680BC70479475FF1FA9
:103CD00080B400AF024B1B681846BD4680BC7047DD
:103CE0009875FF1F80B500AFFFF766FF00BF80BD6E
:103CF00080B500AFFFF76EFF00BF80BD80B500AF9D
:103D0000FFF776FF00BF80BD80B483B000AF78605E
:103D100039607B681B6823F0E0723B681A437B685C
:103D20001A6000BF0C37BD4680BC704780B483B0BA
:103D300000AF78607B681B6803F0E07318460C37AF
:103D4000BD4680BC704780B485B000AFF860B960F4
:103D50007A60FB685A69BB6803F00403072101FA23
:103D600003F3DB431A40BB6803F00403796801FAEC
:103D700003F31A43FB685A6100BF1437BD4680BC89
:103D8000704780B483B000AF78607B68DB6803F471
:103D90004063002B01D1012300E0002318460C37BB
:103DA000BD4680BC704780B485B000AFF860B96094
:103DB0007A60FB689A6ABB6803F01F030F2101FA5F
:103DC00003F3DB431A407B689B0E03F00F01BB68D3
:103DD00003F01F0301FA03F31A43FB689A6200BF62
:103DE0001437BD4680BC704780B483B000AF7860A4
:103DF00039607B689A6A3B68C3F311031A437B6896
:103E00009A6200BF0C37BD4680BC704780B483B057
:103E100000AF786039607B689A6A3B68C3F311032E
:103E2000DB431A407B689A6200BF0C37BD4680BCFA
:103E3000704780B485B000AFF860B9607A60FB6805
:103E40005A69BB681B02DB431A40BB6819027B68D6
:103E50000B4023F07C4323F0FF031A43FB685A61B5
:103E600000BF1437BD4680BC704780B483B000AF3C
:103E700078607B689B6823F0104323F0170343F0BE
:103E800080527B689A6000BF0C37BD4680BC70478B
:103E900080B483B000AF78607B689B6823F01043E8
:103EA00023F017037A68936000BF0C37BD4680BCCF
:103EB000704780B483B000AF78607B689B6803F084
:103EC0008053B3F1805F01D1012300E00023184645
:103ED0000C37BD4680BC704780B483B000AF7860BB
:103EE0007B689B6823F0004323F0170343F0010233
:103EF0007B689A6000BF0C37BD4680BC704780B4B9
:103F000083B000AF78607B689B6823F0004323F0A8
:103F1000170343F002027B689A6000BF0C37BD466E
:103F200080BC704780B483B000AF78607B689B68CA
:103F300003F00103012B01D1012300E00023184607
:103F40000C37BD4680BC704780B483B000AF78604A
:103F50007B689B6803F00203022B01D1012300E080
:103F6000002318460C37BD4680BC704780B483B030
:103F700000AF78607B689B6823F0004323F0170351
:103F800043F004027B689A6000BF0C37BD4680BCDA
:103F9000704780B483B000AF78607B689B6823F083
:103FA000004323F0170343F010027B689A6000BFC0
:103FB0000C37BD4680BC704780B483B000AF7860DA
:103FC0007B689B6803F00403042B01D1012300E00C
:103FD000002318460C37BD4680BC704780B588B0BA
:103FE00000AF78600023FB770023BB6100237B6177
:103FF0000023BB607B68002B01D10123ABE17B6810
:104000001B69002B7B689B6D002B09D17868FDF73D
:10401000ADFF7B680022DA657B68002283F85420BC
:104020007B681B681846FFF744FF0346002B14D13A
:104030007B681B681846FFF718FF9F4B1B689B099E
:104040009E4AA2FB03239B095B00BB6002E0BB68A6
:10405000013BBB60BB68002BF9D17B681B6818462D
:10406000FFF727FF0346002B0DD17B689B6D43F0C4
:1040700010027B689A657B68DB6D43F001027B6808
:10408000DA650123FB777B681B681846FFF794FF0E
:10409000F8607B689B6D03F01003002B40F05281A9
:1040A000FB68002B40F04E817B689B6D23F481738D
:1040B00043F002027B689A657B681B681846FFF72D
:1040C00031FF0346002B4AD17B681B68DB6823F075
:1040D00018017B689A687B681B680A43DA607B6812
:1040E0005B6803F040427B681B6C1A437B685B6C27
:1040F0001A437B689B6C1A437B68DB6C13437A69B9
:1041000013437B617B6893F83C30012B03D17B69BF
:1041100043F001037B617B681B681A69684B13409D
:104120007A68126879690B4313617B685B68B3F145
:10413000404F14D07B685B68B3F1804F0FD07B6831
:104140005B68B3F1004F0AD05E4B1B6823F470121A
:104150007B685B6803F470135A4913430B607B68F8
:104160001B7E9A037B685B7EDB031A437B689B7E26
:104170005B0313437A68126B002A02D04FF480521B
:1041800000E000221A437B68DB681A437B681B69E6
:10419000002B04DA7B681B6923F0004301E04FF435
:1041A00000131A437B6893F82C305B001343BA6901
:1041B0001343BB617B6893F82030012B14D17B68DB
:1041C0009B7E002B04D1BB6943F48033BB610BE0C1
:1041D0007B689B6D43F020027B689A657B68DB6D92
:1041E00043F001027B68DA657B685B6A002B09D0CB
:1041F0007B685B6A03F4E0727B689B6A1343BA696D
:104200001343BB617B681B68DB6823F4FE3323F434
:10421000F3737A681268B9690B43D3607B681B68D3
:104220001A69294B13407A68126879690B43136144
:104230007B6818687B685B6B1A460021FFF783FD7B
:104240007B6818687B689B6B1A462049FFF77BFDEB
:104250007B681B69002B08D17B681B689A6A7B68A6
:104260001B6862F00F029A6247E07B681B69B3F536
:10427000001F42D100233B610CE07B681A6E3B6952
:104280009B0022FA03F303F00F030F2B06D03B69C8
:1042900001333B613B69072BEFD900E000BF3B696D
:1042A000012B15D17B681B689A6A7B681B6862F0DA
:1042B0000F029A6221E000BF30000020632D3E050E
:1042C00002FCFF1F0827014002FCFFDF04FFFF0381
:1042D0007B681B689B6A7B68DB6903F18043013B59
:1042E0009B0003F01C036FF00F0202FA03F17B68DE
:1042F0001A6E7B681B680A439A627B681B68DA68DF
:10430000174B1340BA699A420BD17B680022DA65D9
:104310007B689B6D23F0030343F001027B689A6581
:1043200018E07B689B6D23F0120343F010027B685A
:104330009A657B68DB6D43F001027B68DA650123D7
:10434000FB7707E07B689B6D43F010027B689A6502
:104350000123FB77FB7F18462037BD4680BD00BF99
:10436000E7FF3F8380B584B000AF78607B68002BA7
:1043700001D101236AE07B689B6D43F002027B68F8
:104380009A65786800F0B6FA0346FB73FB7B002B56
:104390000FD1786800F06AFB0346FB73FB7B002BB0
:1043A00002D17B6801229A657B681B681846FFF77B
:1043B0006FFD7B681B685B687A68126823F467731B
:1043C00023F0030353607B681B6840F29F321A603E
:1043D0007B681B68D9687B681A681E4B0B40D360EA
:1043E0007B681B681A697B681B6822F040421A616F
:1043F0007B681B685A697B681B6822F007025A6158
:104400007B681B681A6A7B681B6802F0F0221A62DC
:104410007B681B689B6A7B681B6800229A620E4B54
:104420001B680D4A23F0FE7313607868FDF7B2FD38
:104430007B6800221A667B680022DA657B680022AE
:104440009A657B68002283F85420FB7B184610375E
:10445000BD4680BD00023E830827014080B584B080
:1044600000AF78607B681B681846FFF7A5FD034620
:10447000002B32D17B6893F85430012B01D10223F9
:104480002EE07B68012283F85420786800F070FAEF
:104490000346FB73FB7B002B1AD17B689B6D23F4D7
:1044A000706323F0010343F480727B689A657B6834
:1044B0000022DA657B681B681C221A607B68002278
:1044C00083F854207B681B681846FFF74FFD06E011
:1044D0007B68002283F8542001E00223FB73FB7BFE
:1044E00018461037BD4680BD80B584B000AF7860F7
:1044F0007B6893F85430012B01D1022322E07B68C2
:10450000012283F85420786800F0F4F90346FB7325
:10451000FB7B002B11D1786800F0A8FA0346FB73EF
:10452000FB7B002B09D17B689B6D23F4807323F008
:10453000010343F001027B689A657B68002283F8DF
:104540005420FB7B18461037BD4680BD80B584B033
:1045500000AF786039607B685B69082B02D1082363
:10456000FB6010E07B681B68DB6803F00103002B35
:1045700007D07B689B6D43F020027B689A6501231E
:1045800070E00423FB60FEF7FFFCB8601AE03B68B4
:10459000B3F1FF3F16D0FEF7F7FC0246BB68D31A13
:1045A0003A689A4202D33B68002B0BD17B689B6D23
:1045B00043F004027B689A657B68002283F85420EC
:1045C00003234FE07B681B681A68FB681340002BCD
:1045D000DDD07B689B6D43F400727B689A657B68D5
:1045E0001B681846FFF7CDFB0346002B31D07B68D4
:1045F0009B7E002B2DD17B681B681B6803F0080392
:10460000082B26D17B681B681846FFF7D5FC0346AC
:10461000002B12D17B681B685A687B681B6822F0EC
:104620000C025A607B689B6D23F4807323F00103B6
:1046300043F001027B689A650BE07B689B6D43F059
:1046400020027B689A657B68DB6D43F001027B6822
:10465000DA657B681B7E002B03D17B681B680C220C
:104660001A60002318461037BD4680BD80B483B061
:1046700000AF78607B681B681B6C18460C37BD4622
:1046800080BC704780B588B000AF78603960002387
:10469000FB770023BB607B681B69B3F1004F7B682D
:1046A00093F85430012B01D1022310E17B680122E1
:1046B00083F854207B681B681846FFF77DFC03468F
:1046C000002B40F0F7803B685B68022B00F0B18064
:1046D0007B681B69B3F1004F04D07B681B697E4A7D
:1046E000934208D17B681A683B681B6819461046DC
:1046F000FFF77AFB41E07B681A6E3B685B6803F06A
:104700001F030F2101FA03F3DB431A403B681B68C8
:10471000C3F31103002B05D13B681B689B0E03F00C
:104720001F0311E03B681B683B613B6993FAA3F3ED
:10473000FB60FB687B617B69002B01D1202303E0D8
:104740007B69B3FA83F3DBB23968496801F01F0172
:104750008B401A437B681A663B685B689B085A1C4F
:104760007B68DB699A4208D87B6818683B6859689F
:104770003B681B681A46FFF716FB7B6818683B68A6
:1047800019683B689B681A46FFF753FB3B681B6838
:10479000002B80F297805148FFF7C8FAB8613B6858
:1047A0001B684F4A934220D1BB6903F40003002BDE
:1047B0001BD1BB6943F4000319464848FFF7A4FA2C
:1047C000484B1B689B09484AA2FB03239A091346DE
:1047D0005B0013449B000133BB6002E0BB68013BFC
:1047E000BB60BB68002BF9D16CE03B681B683F4A9B
:1047F00093420CD1BB6903F08073002B07D1BB69D6
:1048000043F0807319463548FFF77EFA5AE03B685B
:104810001B68374A934255D1BB6903F48003002BD0
:1048200050D1BB6943F4800319462C48FFF76CFA5A
:1048300048E07B681B69B3F1004F04D07B681B69BB
:10484000254A934207D17B681A683B681B68194662
:104850001046FFF7DBFA3B681B68002B32DA1F4873
:10486000FFF764FAB8613B681B681D4A934207D1A1
:10487000BB6923F4000319461848FFF745FA21E005
:104880003B681B68194A934207D1BB6923F08073C8
:1048900019461248FFF738FA14E03B681B68144ABF
:1048A00093420FD1BB6923F4800319460B48FFF7ED
:1048B0002BFA07E07B689B6D43F020027B689A65CA
:1048C0000123FB777B68002283F85420FB7F184686
:1048D0002037BD4680BD00BF04000080082701408E
:1048E000001000B030000020632D3E05004000B8ED
:1048F000002000B480B584B000AF78607B681B688E
:104900001846FFF759FB0346002B2CD07B681B6829
:104910001846FFF719FB0346002B04D17B681B6880
:104920001846FFF736FBFEF72FFBF86014E0FEF7A2
:104930002BFB0246FB68D31A022B0DD97B689B6DBB
:1049400043F010027B689A657B68DB6D43F00102DF
:104950007B68DA65012307E07B681B689B6803F0CE
:104960000403002BE3D1002318461037BD4680BD59
:1049700080B584B000AF78600023BB607B681B68A3
:104980001846FFF7CFFA0346002B62D17B681B68FD
:104990009A68324B1340002B0DD07B689B6D43F01F
:1049A00010027B689A657B68DB6D43F001027B68CF
:1049B000DA6501234EE07B681B681846FFF78CFA26
:1049C0002748FFF7B3F9034603F40003002B0FD089
:1049D000244B1B689B09244AA2FB03239B09013338
:1049E000BB6002E0BB68013BBB60BB68002BF9D138
:1049F0007B685B7E012B2CD0FEF7C6FAF86021E0C5
:104A00007B681B681846FFF78DFA0346002B04D11C
:104A10007B681B681846FFF75FFAFEF7B5FA024697
:104A2000FB68D31A022B0DD97B689B6D43F01002F3
:104A30007B689A657B68DB6D43F001027B68DA6511
:104A4000012307E07B681B681B6803F00103012B4F
:104A5000D6D1002318461037BD4680BD1700008010
:104A60000827014030000020632D3E0580B584B04A
:104A700000AF78607B681B681846FFF765FAF8603E
:104A80007B681B681846FFF74DFA0346002B40D0A1
:104A9000FB68002B3DD17B681B689B6803F0050316
:104AA000012B0CD17B681B681846FFF728FA7B683E
:104AB0001B6803221A60FEF767FAB86022E07B6881
:104AC0009B6D43F010027B689A657B68DB6D43F059
:104AD00001027B68DA6501231CE0FEF755FA024605
:104AE000BB68D31A022B0DD97B689B6D43F0100273
:104AF0007B689A657B68DB6D43F001027B68DA6551
:104B0000012307E07B681B689B6803F00103002B0F
:104B1000E3D1002318461037BD4680BD80B483B072
:104B200000AF78607B689B6803F00103012B01D123
:104B3000012300E0002318460C37BD4680BC7047B7
:104B400080B483B000AF78607B689B6803F000435B
:104B5000B3F1004F01D1012300E0002318460C37C8
:104B6000BD4680BC704780B586B000AF786000233A
:104B7000FB607B6893F85430012B01D1022368E07D
:104B80007B68012283F854207868FFF76FFF0346A3
:104B9000FB757B681B681846FFF7C0FF0346002BB8
:104BA0004CD17B689B6D23F4817343F002027B68D8
:104BB0009A657B681B68DB6803F003033B617B68D5
:104BC0001B68DA687B681B6822F00302DA607B6886
:104BD0001B689A687B681B6842F000429A6014E088
:104BE000FB680133FB60FB68B3F52E3F0DD37B6898
:104BF0009B6D23F0120343F010027B689A657B687B
:104C0000002283F85420012323E07B681B681846A8
:104C1000FFF796FF0346002BE2D17B681B68D9683B
:104C20007B681B683A690A43DA607B689B6D23F0F6
:104C3000030343F001027B689A6505E07B689B6D86
:104C400043F010027B689A657B68002283F8542049
:104C5000FB7D18461837BD4680BD000080B485B086
:104C600000AF78607B6803F00703FB600C4BDB68E8
:104C7000BB60BA684FF6FF031340BB60FB681A02C3
:104C8000BB68134343F0BF6343F40033BB60044A83
:104C9000BB68D36000BF1437BD4680BC704700BFFF
:104CA00000ED00E080B400AF044BDB681B0A03F0AA
:104CB00007031846BD4680BC704700BF00ED00E00A
:104CC00080B483B000AF0346FB7197F90730002B27
:104CD0000BDBFB7903F01F02064997F907305B09EC
:104CE000012000FA02F241F8232000BF0C37BD4634
:104CF00080BC704700E100E080B483B000AF0346A1
:104D0000FB7197F90730002B10DBFB7903F01F02D2
:104D1000094997F907305B09012000FA02F22033B4
:104D200041F82320BFF34F8FBFF36F8F00BF0C37C5
:104D3000BD4680BC704700BF00E100E080B483B096
:104D400000AF03463960FB7197F90730002B0ADB8F
:104D50003B68DAB20C4997F907301201D2B20B4422
:104D600083F800230AE03B68DAB20849FB7903F0D4
:104D70000F03043B1201D2B20B441A7600BF0C376A
:104D8000BD4680BC704700BF00E100E000ED00E0E0
:104D900080B489B000AFF860B9607A60FB6803F056
:104DA0000703FB61FB69C3F10703042B28BF04233E
:104DB000BB61FB690433062B02D9FB69033B00E0AE
:104DC00000237B614FF0FF32BB6902FA03F3DA4341
:104DD000BB681A407B699A404FF0FF317B6901FA4A
:104DE00003F3D9437B680B40134318462437BD4671
:104DF00080BC704780B582B000AF78607868FFF7FC
:104E00002DFF00BF0837BD4680BD80B586B000AF1E
:104E10000346B9607A60FB73FFF744FF78617A68F4
:104E2000B9687869FFF7B4FF024697F90F30114669
:104E30001846FFF783FF00BF1837BD4680BD80B519
:104E400082B000AF0346FB7197F907301846FFF7B1
:104E500037FF00BF0837BD4680BD80B582B000AFC8
:104E60000346FB7197F907301846FFF745FF00BF6F
:104E70000837BD4680BD000080B582B000AF7860C5
:104E80007B68002B01D101238EE07B681B681A46EA
:104E9000474B9A420FD87B681B681A46454B134410
:104EA000454AA2FB03231B099A007B685A647B686E
:104EB000424A1A640EE07B681B681A46404B134452
:104EC0003D4AA2FB03231B099A007B685A647B6856
:104ED0003C4A1A647B68022283F825207B681B68A1
:104EE0001B687A68126823F4FF4323F07003136091
:104EF0007B681B6819687B689A687B68DB681A4363
:104F00007B681B691A437B685B691A437B689B69F2
:104F10001A437B68DB691A437B681B6A1A437B6808
:104F20001B680A431A60786800F052FB7B689B6834
:104F3000B3F5804F02D17B6800225A607B685A68C3
:104F40007B689B6C02F07F021A607B68DB6C7A687E
:104F5000126D5A607B685B68002B10D07B685B68C1
:104F6000042B0CD8786800F07BFB7B685B6D00221B
:104F70001A607B689B6D7A68D26D5A6008E07B6826
:104F800000225A657B6800229A657B680022DA65F8
:104F90007B680022DA637B68012283F825207B6826
:104FA000002283F82420002318460837BD4680BD20
:104FB00007040240F8FFFDBFCDCCCCCC000002407E
:104FC000F8FBFDBF0004024080B582B000AF7860FE
:104FD0007B68002B01D101237BE07B681B681A688A
:104FE0007B681B6822F001021A607B681B681A4606
:104FF0003A4B9A420FD87B681B681A46384B1344C9
:10500000384AA2FB03231B099A007B685A647B6819
:10501000354A1A640EE07B681B681A46334B13440A
:10502000304AA2FB03231B099A007B685A647B6801
:105030002F4A1A647B681B6800221A607B685B6CCD
:1050400003F01C027B681B6C012101FA02F25A601A
:10505000786800F0BDFA7B689B6C00221A607B6860
:10506000DB6C7A68126D5A607B685B68002B0FD02E
:105070007B685B68042B0BD8786800F0F1FA7B68DA
:105080005B6D00221A607B689B6D7A68D26D5A60F6
:105090007B6800225A657B6800229A657B68002243
:1050A000DA657B680022DA627B6800221A637B681B
:1050B00000225A637B6800229A637B680022DA63CD
:1050C0007B68002283F825207B68002283F8242057
:1050D000002318460837BD4680BD00BF07040240C4
:1050E000F8FFFDBFCDCCCCCC00000240F8FBFDBFEB
:1050F0000004024080B586B000AFF860B9607A6005
:105100003B600023FB75FB6893F82430012B01D131
:10511000022369E0FB68012283F82420FB6893F8EE
:105120002530DBB2012B55D1FB68022283F8252004
:10513000FB680022DA63FB681B681A68FB681B685F
:1051400022F001021A603B687A68B968F86800F0DA
:1051500002FAFB681B6B002B08D0FB681B681A68FF
:10516000FB681B6842F00E021A600FE0FB681B68C8
:105170001A68FB681B6822F004021A60FB681B684F
:105180001A68FB681B6842F00A021A60FB689B6C95
:105190001B6803F48033002B07D0FB689B6C1A68F4
:1051A000FB689B6C42F480721A60FB685B6D002B9D
:1051B00007D0FB685B6D1A68FB685B6D42F4807218
:1051C0001A60FB681B681A68FB681B6842F00102E2
:1051D0001A6008E0FB688022DA63FB68002283F82B
:1051E00024200123FB75FB7D18461837BD4680BD82
:1051F00080B483B000AF78607B68002B01D10123BD
:105200004FE07B6893F82530DBB2022B08D07B6837
:105210000422DA637B68002283F82420012340E023
:105220007B681B681A687B681B6822F00E021A6094
:105230007B689B6C1A687B689B6C22F480721A6096
:105240007B681B681A687B681B6822F001021A6081
:105250007B685B6C03F01C027B681B6C012101FA0C
:1052600002F25A607B68DB6C7A68126D5A607B6868
:105270005B6D002B0CD07B685B6D1A687B685B6D87
:1052800022F480721A607B689B6D7A68D26D5A60D6
:105290007B68012283F825207B68002283F8242084
:1052A000002318460C37BD4680BC704780B584B0DB
:1052B00000AF78600023FB737B6893F82530DBB286
:1052C000022B05D07B680422DA630123FB7347E0DD
:1052D0007B681B681A687B681B6822F00E021A60E4
:1052E0007B681B681A687B681B6822F001021A60E1
:1052F0007B689B6C1A687B689B6C22F480721A60D6
:105300007B685B6C03F01C027B681B6C012101FA5B
:1053100002F25A607B68DB6C7A68126D5A607B68B7
:105320005B6D002B0CD07B685B6D1A687B685B6DD6
:1053300022F480721A607B689B6D7A68D26D5A6025
:105340007B68012283F825207B68002283F82420D3
:105350007B689B6B002B03D07B689B6B78689847BE
:10536000FB7B18461037BD4680BD000080B584B079
:1053700000AF78607B681B6C1B68FB607B681B68F8
:105380001B68BB607B685B6C03F01C0304229A40C3
:10539000FB681340002B27D0BB6803F00403002BED
:1053A00022D07B681B681B6803F02003002B07D109
:1053B0007B681B681A687B681B6822F004021A600D
:1053C0007B685B6C03F01C027B681B6C042101FA98
:1053D00002F25A607B681B6B002B00F081807B68B7
:1053E0001B6B786898477BE07B685B6C03F01C0361
:1053F00002229A40FB681340002B3DD0BB6803F0AB
:105400000203002B38D07B681B681B6803F0200365
:10541000002B0BD17B681B681A687B681B6822F025
:105420000A021A607B68012283F825207B681B68CA
:105430001A462E4B9A4209D97B685B6C03F01C0319
:105440002B4A022101FA03F3536008E07B685B6C8E
:1054500003F01C03274A022101FA03F353607B681F
:10546000002283F824207B68DB6A002B38D07B681D
:10547000DB6A7868984733E07B685B6C03F01C0359
:1054800008229A40FB681340002B2AD0BB6803F027
:105490000803002B25D07B681B681A687B681B6893
:1054A00022F00E021A607B685B6C03F01C027B68C2
:1054B0001B6C012101FA02F25A607B680122DA6357
:1054C0007B68012283F825207B68002283F8242052
:1054D0007B685B6B002B04D07B685B6B78689847BC
:1054E00000BF00BF1037BD4680BD00BF8000024036
:1054F000000402400000024080B485B000AF786034
:1055000039600023FB727B68002B03D10123FB72FF
:10551000FB7A1BE07B681B681B68FB603B6803F041
:105520001003002B0DD03B6803F48013002B04D034
:10553000FB6843F48013FB6003E0FB6823F48013F3
:10554000FB607B681B68FA681A60FB7A18461437A0
:10555000BD4680BC704780B485B000AFF860B960CC
:105560007A603B60FB68DB6CFA68126D5A60FB681E
:105570005B6D002B04D0FB689B6DFA68D26D5A609E
:10558000FB685B6C03F01C02FB681B6C012101FAD9
:1055900002F25A60FB681B683A685A60FB689B68B5
:1055A000102B08D1FB681B687A689A60FB681B683F
:1055B000BA68DA6007E0FB681B68BA689A60FB6843
:1055C0001B687A68DA6000BF1437BD4680BC70473C
:1055D00080B485B000AF78607B681B681A461C4BAE
:1055E0009A4213D87B685B6C9B089B0003F1804355
:1055F00003F502337A6893647B681B68DBB2083B6F
:10560000144AA2FB03231B09FB6011E07B685B6C5F
:105610009B089A00104B13447A6893647B681B685C
:10562000DBB2083B0B4AA2FB03231B090733FB60D9
:105630007B680A4ADA64FB6803F01F0301229A4080
:105640007B681A6500BF1437BD4680BC704700BF39
:1056500007040240CDCCCCCC1C080240800802409C
:1056600080B485B000AF78607B685B6803F07F032F
:10567000FB60FA680A4B13449B001A467B685A6524
:105680007B68084A9A65FB68013B03F0030301222B
:105690009A407B68DA6500BF1437BD4680BC70470E
:1056A0003F8200104009024080B487B000AFF8602C
:1056B0000B467A60FB720023FB75FB7A002B03D14B
:1056C000FB687A685A6002E00123FB7500BFFB7D2E
:1056D00018461C37BD4680BC704780B483B000AF0D
:1056E000786039607B68002B01D1012303E07B687F
:1056F0003A681A60002318460C37BD4680BC7047D4
:1057000080B586B000AF7860396000237B616D485A
:1057100016F0D0FC49E13B681A6801217B6901FA67
:1057200003F31340FB60FB68002B00F03B813B68F8
:105730005B68012B0BD03B685B68022B07D03B6892
:105740005B68112B03D03B685B68122B30D17B6800
:105750009B683B617B695B00032202FA03F3DB4336
:105760003A6913403B613B68DA687B695B0002FA87
:1057700003F33A6913433B617B683A699A607B683B
:105780005B683B6101227B6902FA03F3DB433A6900
:1057900013403B613B685B681B0903F001027B69B6
:1057A00002FA03F33A6913433B617B683A695A6032
:1057B0007B68DB683B617B695B00032202FA03F3D1
:1057C000DB433A6913403B613B689A687B695B0045
:1057D00002FA03F33A6913433B617B683A69DA6082
:1057E0003B685B68022B03D03B685B68122B23D1BC
:1057F0007B69DA087B68083253F822303B617B69A9
:1058000003F007039B000F2202FA03F3DB433A691C
:1058100013403B613B681A697B6903F007039B00F7
:1058200002FA03F33A6913433B617B69DA087B6848
:105830000832396943F822107B681B683B617B6939
:105840005B00032202FA03F3DB433A6913403B6136
:105850003B685B6803F003027B695B0002FA03F3B9
:105860003A6913433B617B683A691A603B685B683D
:1058700003F08053002B00F09580134A7B699B084E
:10588000023352F823303B617B6903F003039B0032
:10589000072202FA03F3DB433A6913403B617B685A
:1058A000B3F1904F16D07B68084A934207D07B68CB
:1058B000074A934201D102230DE007230BE00123A5
:1058C00009E000BFA8D3010800000140000400481F
:1058D0000008004800237A6902F003029200934016
:1058E0003A6913433B6137497B699B0802333A6944
:1058F00041F82320344BD3F880303B61FB68DB4315
:105900003A6913403B613B685B6803F48033002BCA
:1059100003D03A69FB6813433B612B4A3B69C2F8E9
:105920008030294BD3F884303B61FB68DB433A6914
:1059300013403B613B685B6803F40033002B03D0EA
:105940003A69FB6813433B611F4A3B69C2F88430E4
:105950001D4B1B683B61FB68DB433A6913403B61AD
:105960003B685B6803F48013002B03D03A69FB6843
:1059700013433B61144A3B691360134B5B683B6103
:10598000FB68DB433A6913403B613B685B6803F4A7
:105990000013002B03D03A69FB6813433B610A4AAA
:1059A0003B6953607B6901337B613B681A687B69A3
:1059B00022FA03F3002B7FF4AEAE00BF1837BD46CA
:1059C00080BD00BF000001400008005880B487B0CF
:1059D00000AF7860396000237B61AFE001227B6912
:1059E00002FA03F33A6813403B613B69002B00F075
:1059F000A280584A7B699B08023352F82330FB602F
:105A00007B6903F003039B00072202FA03F3FA68A1
:105A10001340FB607B68B3F1904F0DD07B684E4A1A
:105A2000934207D07B684D4A934201D1022304E0A0
:105A3000072302E0012300E000237A6902F0030259
:105A400092009340FA689A4236D1454BD3F88020B1
:105A50003B69DB4342491340C1F88030404BD3F8E7
:105A600084203B69DB433E491340C1F884303C4B02
:105A70001A683B69DB433A4913400B60384B5A685C
:105A80003B69DB43364913404B607B6903F00303FA
:105A90009B00072202FA03F3FB602E4A7B699B08F6
:105AA000023352F82310FB68DA432A487B699B08CB
:105AB0000A40023340F823207B681A687B695B0048
:105AC000032101FA03F31A437B681A607B69DA0841
:105AD0007B68083253F822107B6903F007039B00B0
