:020000040800F2
:1000000000800020212700086B18000871180008E4
:10001000771800087D180008831800080000000009
:100020000000000000000000000000008918000827
:100030009518000800000000A1180008AD1800087D
:100040007127000871270008B918000871270008F7
:100050007127000871270008CD180008DB18000878
:100060007127000871270008712700087127000810
:10007000712700087127000871270008E918000897
:1000800071270008712700087127000871270008F0
:1000900071270008712700087127000871270008E0
:1000A00071270008712700087127000871270008D0
:1000B00071270008712700087127000871270008C0
:1000C00071270008712700087127000871270008B0
:1000D00071270008FD180008712700087127000823
:1000E00071270008712700081119000871270008FE
:1000F0007127000871270008712700087127000880
:1001000071270008712700082519000871270008C9
:10011000712700087127000871270008712700085F
:10012000712700087127000871270008712700084F
:08013000712700087127000887
:1001380010B5054C237833B9044B13B10448AFF319
:1001480000800123237010BDC801002000000000BA
:10015800B0A9010808B5034B1BB103490348AFF325
:10016800008008BD00000000CC010020B0A90108F3
:10017800034613F8012B002AFBD1181A01387047DF
:1001880081F0004102E000BF83F0004330B54FEA40
:1001980041044FEA430594EA050F08BF90EA020FAD
:1001A8001FBF54EA000C55EA020C7FEA645C7FEA40
:1001B800655C00F0E2804FEA5454D4EB5555B8BF63
:1001C8006D420CDD2C4480EA020281EA030382EAD4
:1001D800000083EA010180EA020281EA0303362D66
:1001E80088BF30BD11F0004F4FEA01314FF4801C39
:1001F8004CEA113102D0404261EB410113F0004F4B
:100208004FEA03334CEA133302D0524263EB430301
:1002180094EA050F00F0A780A4F10104D5F1200E9F
:100228000DDB02FA0EFC22FA05F2801841F10001FA
:1002380003FA0EF2801843FA05F359410EE0A5F1CE
:1002480020050EF1200E012A03FA0EFC28BF4CF0FF
:10025800020C43FA05F3C01851EBE37101F00045B5
:1002680007D54FF0000EDCF1000C7EEB00006EEBC2
:100278000101B1F5801F1BD3B1F5001F0CD349084C
:100288005FEA30004FEA3C0C04F101044FEA4452A3
:1002980012F5800F80F09A80BCF1004F08BF5FEA2A
:1002A800500C50F1000041EB045141EA050130BD0A
:1002B8005FEA4C0C404141EB010111F4801FA4F1AD
:1002C8000104E9D191F0000F04BF01460020B1FA02
:1002D80081F308BF2033A3F10B03B3F120020CDA3A
:1002E8000C3208DD02F1140CC2F10C0201FA0CF018
:1002F80021FA02F10CE002F11402D8BFC2F1200C7D
:1003080001FA02F120FA0CFCDCBF41EA0C01904032
:10031800E41AA2BF01EB0451294330BD6FEA04047B
:100328001F3C1CDA0C340EDC04F11404C4F1200266
:1003380020FA04F001FA02F340EA030021FA04F378
:1003480045EA030130BDC4F10C04C4F1200220FACF
:1003580002F001FA04F340EA0300294630BD21FA0D
:1003680004F0294630BD94F0000F83F4801306BFD3
:1003780081F480110134013D4EE77FEA645C18BFC7
:100388007FEA655C29D094EA050F08BF90EA020F5E
:1003980005D054EA000C04BF1946104630BD91EA56
:1003A800030F1EBF0021002030BD5FEA545C05D159
:1003B8004000494128BF41F0004130BD14F5800498
:1003C8003CBF01F5801130BD01F0004545F0FE410C
:1003D80041F470014FF0000030BD7FEA645C1ABF41
:1003E800194610467FEA655C1CBF0B46024650EA78
:1003F800013406BF52EA033591EA030F41F40021A4
:1004080030BD00BF90F0000F04BF0021704730B529
:100418004FF4806404F132044FF000054FF00001FE
:1004280050E700BF90F0000F04BF0021704730B5BF
:100438004FF4806404F1320410F0004548BF404294
:100448004FF000013EE700BF42004FEAE2014FEAE9
:1004580031014FEA02701FBF12F07F4393F07F4FC4
:1004680081F06051704732F07F4208BF704793F0C7
:100478007F4F04BF41F40021704730B54FF46074DA
:1004880001F0004521F000411CE700BF50EA0102DD
:1004980008BF704730B54FF000050AE050EA010286
:1004A80008BF704730B511F0004502D5404261EBF6
:1004B80041014FF4806404F132045FEA915C3FF437
:1004C800D8AE4FF003025FEADC0C18BF03325FEAD4
:1004D800DC0C18BF033202EBDC02C2F1200300FA85
:1004E80003FC20FA02F001FA03FE40EA0E0021FAAA
:1004F80002F11444BDE600BF4FF0FF3C06E000BF28
:100508004FF0010C02E000BF4FF0010C4DF804CD94
:100518004FEA410C7FEA6C5C4FEA430C18BF7FEA54
:100528006C5C1BD001B050EA410C0CBF52EA430C82
:1005380091EA030F02BF90EA020F0020704710F102
:10054800000F91EA030F58BF994208BF90422CBF91
:10055800D8176FEAE37040F0010070474FEA410C8A
:100568007FEA6C5C02D150EA013C07D14FEA430CA8
:100578007FEA6C5CD6D152EA033CD3D05DF8040B19
:10058800704700BF8446104662468C46194663464B
:1005980000E000BF01B5FFF7B7FF002848BF10F122
:1005A800000F01BD4DF808EDFFF7F4FF0CBF012067
:1005B80000205DF808FB00BF4DF808EDFFF7EAFFE3
:1005C80034BF012000205DF808FB00BF4DF808ED9E
:1005D800FFF7E0FF94BF012000205DF808FB00BF93
:1005E8004DF808EDFFF7CEFF94BF012000205DF81D
:1005F80008FB00BF4DF808EDFFF7C4FF34BF01202A
:1006080000205DF808FB00BF4FEA410212F5001216
:1006180015D211D56FF47873B3EB625212D94FEA41
:10062800C12343F0004343EA505311F0004F23FA2B
:1006380002F018BF404270474FF00000704750EA80
:10064800013005D111F0004008BF6FF0004070473D
:100658004FF00000704700BF80F0004002E000BF8C
:1006680081F0004142001FBF5FEA410392EA030F95
:100678007FEA226C7FEA236C6AD04FEA1262D2EBDF
:100688001363C1BFD218414048404140B8BF5B42E4
:10069800192B88BF704710F0004F40F4000020F07D
:1006A8007F4018BF404211F0004F41F4000121F093
:1006B8007F4118BF494292EA030F3FD0A2F10102DD
:1006C80041FA03FC10EB0C00C3F1200301FA03F11B
:1006D80000F0004302D5494260EB4000B0F5000F3E
:1006E80013D3B0F1807F06D340084FEA310102F1FD
:1006F8000102FE2A51D2B1F1004F40EBC25008BFAF
:1007080020F0010040EA03007047490040EB000078
:1007180010F4000FA2F10102EDD1B0FA80FCACF1A7
:10072800080CB2EB0C0200FA0CF0AABF00EBC250A6
:1007380052421843BCBFD0401843704792F0000F94
:1007480081F4000106BF80F400000132013BB5E7E7
:100758004FEA41037FEA226C18BF7FEA236C21D05D
:1007680092EA030F04D092F0000F08BF08467047C2
:1007780090EA010F1CBF0020704712F07F4F04D190
:10078800400028BF40F00040704712F100723CBFA3
:1007980000F50000704700F0004343F0FE4040F4CD
:1007A800000070477FEA226216BF08467FEA23638B
:1007B8000146420206BF5FEA412390EA010F40F476
:1007C800800070474FF0000304E000BF10F00043C2
:1007D80048BF40425FEA000C08BF704743F09643A9
:1007E80001464FF000001CE050EA010208BF7047C4
:1007F8004FF000030AE000BF50EA010208BF70474B
:1008080011F0004302D5404261EB41015FEA010C5F
:1008180002BF84460146002043F0B64308BFA3F157
:100828008053A3F50003BCFA8CF2083AA3EBC25339
:1008380010DB01FA02FC634400FA02FCC2F1200258
:10084800BCF1004F20FA02F243EB020008BF20F08F
:100858000100704702F1200201FA02FCC2F12002F5
:1008680050EA4C0021FA02F243EB020008BF20EAEA
:10087800DC7070474FF0FF0C1CEAD0521EBF1CEA18
:10088800D15392EA0C0F93EA0C0F6FD01A4480EA06
:10089800010C400218BF5FEA41211ED04FF00063EF
:1008A80043EA501043EA5111A0FB01310CF000401B
:1008B800B1F5000F3EBF490041EAD3715B0040EA41
:1008C800010062F17F02FD2A1DD8B3F1004F40EB11
:1008D800C25008BF20F00100704790F0000F0CF0E4
:1008E800004C08BF49024CEA502040EA51207F3AA8
:1008F800C2BFD2F1FF0340EAC250704740F4000083
:100908004FF00003013A5DDC12F1190FDCBF00F073
:1009180000407047C2F10002410021FA02F1C2F121
:10092800200200FA02FC5FEA310040F1000053EABD
:100938004C0308BF20EADC70704792F0000F00F00B
:10094800004C02BF400010F4000F013AF9D040EA11
:100958000C0093F0000F01F0004C02BF490011F4A5
:10096800000F013BF9D041EA0C018FE70CEAD153A3
:1009780092EA0C0F18BF93EA0C0F0AD030F0004C23
:1009880018BF31F0004CD8D180EA010000F00040D7
:10099800704790F0000F17BF90F0004F084691F095
:1009A800000F91F0004F14D092EA0C0F01D14202CF
:1009B8000FD193EA0C0F03D14B0218BF084608D198
:1009C80080EA010000F0004040F0FE4040F40000E2
:1009D800704740F0FE4040F4400070474FF0FF0C75
:1009E8001CEAD0521EBF1CEAD15392EA0C0F93EABC
:1009F8000C0F69D0A2EB030280EA010C49024FEA0E
:100A0800402037D04FF0805343EA111143EA1013C6
:100A18000CF000408B4238BF5B0042F17D024FF47E
:100A2800000C8B4224BF5B1A40EA0C00B3EB510F59
:100A380024BFA3EB510340EA5C00B3EB910F24BF42
:100A4800A3EB910340EA9C00B3EBD10F24BFA3EBC7
:100A5800D10340EADC001B0118BF5FEA1C1CE0D18F
:100A6800FD2A3FF650AF8B4240EBC25008BF20F042
:100A7800010070470CF0004C4CEA50207F32C2BF96
:100A8800D2F1FF0340EAC250704740F400004FF033
:100A98000003013A37E792F0000F00F0004C02BF64
:100AA800400010F4000F013AF9D040EA0C0093F02E
:100AB800000F01F0004C02BF490011F4000F013B88
:100AC800F9D041EA0C0195E70CEAD15392EA0C0FF0
:100AD80008D142027FF47DAF93EA0C0F7FF470AF28
:100AE800084676E793EA0C0F04D14B023FF44CAF6B
:100AF80008466EE730F0004C18BF31F0004CCAD100
:100B080030F000427FF45CAF31F000437FF43CAF3B
:100B18005FE700BF42000ED2B2F1FE4F0BD34FF099
:100B28009E03B3EB126209D44FEA002343F000435B
:100B380023FA02F070474FF00000704712F1610F7E
:100B480001D1420202D14FF0FF3070474FF0000050
:100B5800704700BF53B94AB9002908BF00281CBF15
:100B68004FF0FF314FF0FF3000F072B9ADF1080CD3
:100B78006DE904CE00F006F8DDF804E0DDE90223B3
:100B880004B070472DE9F047089E04468846002BBC
:100B98004BD18A42154667D9B2FA82F24AB1C2F1FC
:100BA800200701FA02F320FA07F7954047EA0308FD
:100BB80094404FEA154E230CB8FBFEF71FFA85FC4C
:100BC8000EFB178843EA084307FB0CF1994209D941
:100BD800EB1807F1FF3080F01B81994240F2188131
:100BE800023F2B445B1AA4B2B3FBFEF00EFB10339A
:100BF80044EA034400FB0CFCA44509D92C1900F174
:100C0800FF3380F00781A44540F2048102382C4468
:100C180040EA0740A4EB0C0400271EB1D44000238F
:100C2800C6E900433946BDE8F0878B4209D9002E52
:100C380000F0EB800027C6E9000138463946BDE8D8
:100C4800F087B3FA83F7002F47D18B4202D3824251
:100C580000F2FA80841A61EB030301209846002E03
:100C6800E0D0C6E90048DDE702B9FFDEB2FA82F259
:100C7800002A40F08F80491B4FEA154E1FFA85F86D
:100C88000127B1FBFEFC230C0EFB1C1143EA0143B8
:100C980008FB0CF1994207D9EB180CF1FF3002D28E
:100CA800994200F2CD808446591AA3B2B1FBFEF0F6
:100CB8000EFB101443EA044408FB00F8A04507D9CA
:100CC8002C1900F1FF3302D2A04500F2B680184675
:100CD800A4EB080440EA0C409FE7C7F1200CBB4096
:100CE80022FA0CFE4EEA030E01FA07F420FA0CF57C
:100CF80021FA0CF34FEA1E482543B3FBF8F92C0CF4
:100D080008FB19331FFA8EFA44EA034309FB0AF475
:100D18009C4202FA07F200FA07F10BD91EEB030313
:100D280009F1FF3080F087809C4240F28480A9F16D
:100D3800020973441B1BADB2B3FBF8F008FB103378
:100D480045EA034400FB0AFAA24508D91EEB04044D
:100D580000F1FF336BD2A24569D90238744440EAE6
:100D68000940A0FB0289A4EB0A044C45C2464B4645
:100D780054D351D0002E69D0B1EB0A0564EB0304BB
:100D880004FA0CFCFD40FC404CEA0505C6E9005499
:100D9800002747E7C2F1200320FA03F7954001FA3C
:100DA80002F021FA03F34FEA154E3843010CB3FB66
:100DB800FEF71FFA85F80EFB173341EA034107FBDC
:100DC80008F38B4204FA02F407D9691807F1FF3CCB
:100DD8002FD28B422DD9023F2944CB1A81B2B3FBC3
:100DE800FEF00EFB103341EA034100FB08F38B428F
:100DF80007D9691800F1FF3C17D28B4215D9023880
:100E08002944C91A40EA07473BE73746304609E70D
:100E18000746E7E61846FBE64145ABD2B8EB020ABF
:100E280069EB0E0201381346A4E76046E9E7184665
:100E380095E76746D1E781467CE702382C4447E7C7
:100E4800ACF1020C2B442FE7384608E73746E9E6B1
:100E5800704700BF80B485B000AF78604FF0B043F2
:100E68001A6E4FF0B0417B6813430B664FF0B043E6
:100E78001A6E7B681340FB60FB6800BF1437BD46E1
:100E880080BC704780B483B000AF78604FF0B04347
:100E98001A6E7B68DB434FF0B04113400B6600BF0E
:100EA8000C37BD4680BC704780B500AF234B244A41
:100EB8001A60224B4FF000425A60204B00229A6081
:100EC8001E4B0022DA601D4B00221A611B4B0422C4
:100ED8005A611A4B00221A76184B00225A76174B81
:100EE80000229A76154B0122DA61144B002283F80E
:100EF8002020124B00225A62104B00229A620F4B9C
:100F0800002283F82C200D4B4FF480521A630B4BB0
:100F180007225A63094B07229A63084B002283F879
:100F28003C20064B0022DA64044801F031FE0346F7
:100F3800002B01D000F09AFB00BF80BD28160020CE
:100F48000024014080B582B000AF78607B681B68E0
:100F5800054A934203D14FF40070FFF77BFF00BFAF
:100F68000837BD4680BD00BF0024014080B582B06F
:100F780000AF78607B681B68054A934203D14FF441
:100F88000070FFF77FFF00BF0837BD4680BD00BF78
:100F98000024014080B400AF034B044A1A6000BF2C
:100FA800BD4680BC704700BF2816002000240140C1
:100FB80080B586B002AF0023FB810023BB6000F040
:100FC80071F80346FB80304800F0A0F8B8602F4B5A
:100FD8001A882F4B1B889A4226D02C4B1A882C4BE8
:100FE8001B889A421CD0FB88BA6802FB03F39B0853
:100FF800284AA2FB03235B091A46254B1B88D31AF0
:10100800642202FB03F2214B1B881946204B1B88E4
:10101800CB1A92FBF3F39BB21E339BB21BB201E0D7
:1010280047F6FF73FB811CE0FB88BA6802FB03F2FA
:10103800194BA3FB0213D21A52081344DB0A4FF4CC
:101048007A7202FB03F3A3F53923A3F50C63134A61
:1010580082FB03129212DB17D31A9BB21E339BB288
:10106800FB81B7F90E3000930D4B012200210120BE
:1010780019F080F9B7F90E301B02FB81B7F90E3071
:1010880018461037BD4680BD001000B0C875FF1F58
:10109800A875FF1F9F00EE0901011000AD8BDB68EA
:1010A800C8A9010880B582B000AF0023FB800023E7
:1010B8003B60134800F02AF838603B68002B02D1E7
:1010C8000023FB8016E00F4B1B884FF6FF729342FC
:1010D8000BD00C4B1B881A4640F6E44303FB02F284
:1010E8003B68B2FBF3F3FB8004E0074A3B68B2FBC2
:1010F800F3F3FB80FB8818460837BD4680BD00BF68
:10110800002000B4AA75FF1FD8084C0080B586B02F
:1011180000AF786000237B6107F1080300221A60A2
:101128005A609A60FFF7C0FE1A4802F0F6FA0346C2
:10113800002B01D000F09AFA7B68BB600023FB60AB
:1011480000233B6107F108031946124802F074F8BE
:101158000346002B01D000F089FA0E4801F058FF31
:101168000346002B01D000F081FA4FF0FF31094807
:1011780001F0C6FF074801F091FF064802F050F859
:101188007861044801F0C8FE7B6918461837BD46E7
:1011980080BD00BF2816002080B485B000AF7860FD
:1011A8004FF0B043DA6C4FF0B0417B681343CB6427
:1011B8004FF0B043DA6C7B681340FB60FB6800BFFC
:1011C8001437BD4680BC704780B588B000AF034671
:1011D800FB7107F10C0300221A605A609A60DA600A
:1011E8001A610220FFF7D8FFFB79124A32F8133050
:1011F800FB6001233B6100237B610223BB61FB7918
:101208000D4A52F8233007F10C021146184603F034
:1012180051F8FB79084A52F82300FB79054A32F85D
:1012280013300022194603F06FFA002318462037BE
:10123800BD4680BD50B101080000002080B582B0D5
:1012480000AF0346FB71FB79074A52F82300FB798C
:10125800064A32F813300122194603F055FA0023E2
:1012680018460837BD4680BD0000002050B101086F
:1012780080B582B000AF0346FB71FB79074A52F88C
:101288002300FB79064A32F813300022194603F08E
:101298003BFA002318460837BD4680BD00000020F1
:1012A80050B1010880B582B000AF0346FB71FB79ED
:1012B800074A52F82300FB79064A32F813301946D8
:1012C80003F039FA002318460837BD4680BD00BF31
:1012D8000000002050B1010880B588B000AF034677
:1012E8000A46FB711346BB7107F10C0300221A6012
:1012F8005A609A60DA601A61FB79002B03D10120E9
:10130800FFF74AFF0CE0FB79022B03D10120FFF71E
:1013180043FF05E0FB79012B02D10420FFF73CFFD6
:10132800FB79284A32F81330FB6001237B610223E2
:10133800BB61BB79002B0CD100233B61FB79224AAE
:1013480052F8233007F10C021146184602F0B2FF9A
:1013580033E01E4B3B61FB791B4A52F8233007F1FF
:101368000C021146184602F0A5FFFB79DB00184A6B
:101378009818FB79174A52F82330194602F087FF6C
:10138800FB79DB00124A9818FB79134A52F823308C
:101398001A46002102F062FFFB79104AD056FB7909
:1013A8000F4A52F823300022194602F008FBFB7955
:1013B8000A4AD356184602F01CFB00231846203769
:1013C800BD4680BD58B101080C0000200000211066
:1013D8008C16002064B101081800002060B10108D3
:1013E8002400002080B483B000AF0346FB7100BF27
:1013F8000C37BD4680BC704780B500AF0020FFF7B2
:10140800F1FF00BF80BD80B500AF0120FFF7EAFF04
:1014180000BF80BD80B500AF0220FFF7E3FF00BF2B
:1014280080BD80B485B000AF78604FF0B0439A6C4F
:101438004FF0B0417B6813438B644FF0B0439A6C14
:101448007B681340FB60FB6800BF1437BD4680BC57
:10145800704780B500AF0420FFF7E3FF0120FFF7D6
:10146800E0FF002202210F2002F0A9FA0F2002F06B
:10147800C0FA00BF80BD80B485B000AF78604FF07F
:10148800B043DA6C4FF0B0417B681343CB644FF044
:10149800B043DA6C7B681340FB60FB6800BF14370D
:1014A800BD4680BC7047000080B586B000AF3B1DCC
:1014B80000221A605A609A60DA601A610120FFF708
:1014C800DAFF0220FFF7D7FF0420FFF7D4FF00223E
:1014D8004FF47E41264803F017F9002238212548A9
:1014E80003F012F94FF47E437B600123BB600023B5
:1014F800FB6000233B613B1D19461D4802F0DAFEE4
:1015080038237B600123BB600023FB6000233B6121
:101518003B1D1946174802F0CDFE03237B60164B8E
:10152800BB600023FB603B1D19464FF0904002F062
:10153800C1FE40237B60104BBB600023FB603B1D5A
:1015480019460C4802F0B6FE00220021062002F0DF
:1015580036FA062002F04DFA00220021072002F098
:101568002EFA072002F045FA00BF1837BD4680BDA5
:1015780000040048000800480000111080B483B03F
:1015880000AF78604FF0B043D3F8903023F01802E2
:101598004FF0B0417B681343C1F8903000BF0C375F
:1015A800BD4680BC704780B500AF01F009F900F076
:1015B80007F8FFF779FF07F087FA07F08DFAFCE7DD
:1015C80080B59AB000AF07F12003482200211846E1
:1015D80019F05CF93B1D00221A605A609A60DA60C3
:1015E8001A615A619A610020FFF7C8FF1E4B1B68F9
:1015F80023F4C0631C4A43F4007313601A4B1B683E
:1016080003F4C0633B603B6824233B628123FB6295
:1016180001233B6400237B64B023BB640023FB6489
:1016280007F12003184603F02BFC0346002B01D0DA
:1016380000F01CF84F237B600023BB600023FB6095
:1016480000233B6100237B610023FB613B1D0221DA
:10165800184603F0AFFF0346002B01D000F006F850
:1016680000BF6837BD4680BD0004005880B400AF95
:1016780072B6FEE780B400AF4FF0B043D3F89030B5
:101688004FF0B04243F40043C2F8903000BFBD466B
:1016980080BC704780B485B000AF78604FF0B0432D
:1016A8009A6D4FF0B0417B6813438B654FF0B043A0
:1016B8009A6D7B681340FB60FB6800BF1437BD461A
:1016C80080BC704780B58CB000AF3B1D2C22002138
:1016D800184619F0DBF8224B224A1A60204B1F22C9
:1016E8009A601F4B00221A611D4B00225A611C4B45
:1016F80000229A611A4B4FF08042DA61184B00229F
:101708001A62174B4FF480725A62154804F030FC85
:101718000346002B01D0FFF7A9FF114804F00AFF88
:101728000346002B01D0FFF7A1FF00233B620023F3
:10173800BB600023BB614FF00053FB614FF4807323
:10174800FB623B1D01221946054804F08BFC034649
:10175800002B01D0FFF78AFF00BF3037BD4680BDA0
:10176800A41600200028004080B590B000AF786033
:1017780007F1080338220021184619F087F87B681A
:101788001B68164A934225D14FF48033BB604FF44F
:101798008073FB6307F10803184604F0CFFA034689
:1017A800002B01D0FFF762FFFFF764FF4FF4806062
:1017B800FFF770FF00220021022002F000F902204A
:1017C80002F017F9002200212A2002F0F8F82A2056
:1017D80002F00FF900BF4037BD4680BD0028004029
:1017E80080B400AF034B0122C3F8882000BFBD4678
:1017F80080BC70470004005880B400AF00BFBD46ED
:1018080080BC704780B400AF00BFBD4680BC704745
:1018180080B500AF01F006F8FFF7E2FF012003F002
:101828004DF800BF80BD80B500AF01F009F800F0A9
:101838002DFF00BF80BD80B500AF00F0F3FF012190
:10184800002002F0B7FF00BF80BD80B500AF00F0F8
:10185800F7FF00BF80BD80B400AF00BFBD4680BCAD
:10186800704780B400AFFEE780B400AFFEE780B4F5
:1018780000AFFEE780B400AFFEE780B400AFFEE73C
:1018880080B400AF00BFBD4680BC704780B400AFD5
:1018980000BFBD4680BC704780B400AF00BFBD46E6
:1018A80080BC704780B500AF00F0AAFF00BF80BDC4
:1018B80080B500AF024804F079FE00BF80BD00BFCC
:1018C800A416002080B500AF012002F04DFF00BF34
:1018D80080BD80B500AF022002F046FF00BF80BD8A
:1018E80080B500AF024802F01BFB00BF80BD00BFFF
:1018F800E816002080B500AF024805F071FC00BF73
:1019080080BD00BF4817002080B500AF024804F032
:10191800FDFC00BF80BD00BFA416002080B500AF4D
:10192800024805F0ABF900BF80BD00BFDC160020FF
:1019380080B485B000AF78604FF0B0435A6E4FF076
:10194800B0417B6813434B664FF0B0435A6E7B68D7
:101958001340FB60FB6800BF1437BD4680BC70476E
:1019680080B500AF064B08221A60054804F00AFF4C
:101978000346002B01D0FFF779FE00BF80BD00BFF2
:10198800DC16002080B582B000AF78600120FFF738
:10199800CFFF00220021322002F011F8322002F09D
:1019A80028F800BF0837BD4680BD80B483B000AFBB
:1019B80078604FF0B0439B6823F400424FF0B04189
:1019C8007B6813438B6000BF0C37BD4680BC7047F3
:1019D80080B485B000AF78604FF0B043DA6C4FF058
:1019E800B0417B681343CB644FF0B043DA6C7B683B
:1019F8001340FB60FB6800BF1437BD4680BC7047CE
:101A080080B483B000AF78604FF0B043DA6C7B6885
:101A1800DB434FF0B0411340CB6400BF0C37BD46E9
:101A280080BC704780B400AF024B1B681846BD46A7
:101A380080BC70478075FF1F80B400AF034B1B68E4
:101A4800DBB21846BD4680BC704700BF8475FF1FD7
:101A580080B400AF034B1B681B0A1846BD4680BC08
:101A6800704700BF8475FF1F80B500AF0020FFF7E7
:101A78009CFF18F0D7F900F023F900F0C8F918F026
:101A88005DFC094818F0F8FC022018F003FDFFF788
:101A980081FA00F009FA17F01BFC0121012017F068
:101AA80055FC00BF80BD00BF891C000880B500AF91
:101AB80017F07AFC00BF80BD80B584B002AF002368
:101AC800FB71FFF7EFFA0346BB80BB8840F6B832DC
:101AD800934202D9FE23FB7114E0BB88B3F5E16F92
:101AE80002D20023FB710DE0BB88A3F5E1631A461F
:101AF8001346DB019B1A5B001A46094BA3FB022322
:101B0800DB09FB71FB790093064B012200210220BF
:101B180018F030FCFB7918460837BD4680BD00BF79
:101B2800B5814E1BD4A9010880B582B000AF00234F
:101B3800FB80FFF73DFA0346002B00DAFF331B1248
:101B48001BB2FB80FB8818460837BD4680BD90B5A0
:101B580087B000AF786000237B61FFF763FF78618F
:101B68007B69B3F1FF3F38D100F078FE044600F0FE
:101B780089FE034623443B6100F07AFEF8603B6926
:101B88001A0E7B680733D2B21A703B691A0C7B684D
:101B98000633D2B21A703B691A0A7B680533D2B28F
:101BA8001A707B6804333A69D2B21A70FB681A0E4D
:101BB8007B680333D2B21A70FB681A0C7B68023355
:101BC800D2B21A70FB681A0A7B680133D2B21A7053
:101BD800FB68DAB27B681A7031E07B6807337A6990
:101BE800D2B21A707B691A0A7B680633D2B21A70AD
:101BF8007B691A0C7B680533D2B21A707B691A0E9E
:101C08007B680433D2B21A70FFF716FF78617B68DD
:101C180003337A69D2B21A70FFF71AFF78617B68CA
:101C280002337A69D2B21A707B691A0A7B68013367
:101C3800D2B21A707B691B0CDAB27B681A7000BFCB
:101C48001C37BD4690BD90B583B000AF00237B60C4
:101C5800FFF7E8FE78607B68B3F1FF3F0BD100F037
:101C6800FDFD044600F004FE03465C4000F00AFE59
:101C7800034663407B607B6818460C37BD4690BDC1
:101C880080B586B002AF7860396007F1080318465E
:101C980017F096FCBB68B7F90C200092074A102190
:101CA800786800F069F87868FEF762FA03469AB235
:101CB8003B681A8000BF1037BD4680BDE0A9010807
:101CC80080B586B000AF3B1D00221A605A609A604A
:101CD800DA601A610120FFF77BFE0220FFF778FE29
:101CE8000420FFF775FE8020FFF772FE0323BB6018
:101CF8000023FB6049F6FF737B603B1D19464FF0DC
:101D0800904002F0D7FA4FF6FF737B603B1D1946EF
:101D18000E4802F0CFFA3B1D19460D4802F0CAFAE8
:101D28003B1D19460B4802F0C5FA0120FFF768FE73
:101D38000220FFF765FE0420FFF762FE8020FFF710
:101D48005FFE00BF1837BD4680BD00BF00040048D5
:101D580000080048001C004880B500AF012102209F
:101D680017F0C6FA00BF80BD80B500AF0021022081
:101D780017F0BEFA00BF80BD0CB480B584B000AFC8
:101D88007860396007F11C03FB603968FB68BA6941
:101D9800786817F083FD00BF1037BD46BDE8804066
:101DA80002B0704780B483B000AF78600023184653
:101DB8000C37BD4680BC704780B500AF00F034F9E1
:101DC8000346184680BD80B582B000AF78607B6856
:101DD800184600F094F900BF0837BD4680BD80B4AE
:101DE80085B000AF78604FF0B043DA6C4FF0B04187
:101DF8007B681343CB644FF0B043DA6C7B681340C5
:101E0800FB60FB6800BF1437BD4680BC704780B5D7
:101E180086B000AF3B1D00221A605A609A60DA60F3
:101E28001A610323BB600023FB604FF4C0437B604F
:101E38000120FFF7D4FF3B1D19464FF0904002F0F8
:101E480039FA00F029FD00F02DFD00F031FD00BF4A
:101E58001837BD4680BD000080B487B000AF7860F9
:101E68000C4B7B610C4B3B610C4BFB607B687A69CC
:101E78009A607B683A695A607B68FA681A607B687E
:101E8800074ADA607B68074A1A6100BF1C37BD46FB
:101E980080BC7047000048420000904100007A442E
:101EA8000D093E00AB03050080B400AF00BFBD467E
:101EB80080BC704780B400AF00BFBD4680BC70478F
:101EC80080B483B000AF78607B689B6818460C3795
:101ED800BD4680BC7047000080B582B000AF0023CB
:101EE800FB71144B1B7883F00103DBB2002B1BD072
:101EF800114B4FF0FF321A63FFF7E4FB00F056F87E
:101F08004FF480710C4804F0ABF90B4B4FF0FF32E3
:101F18001A63094804F0DCFA002000F0A3F900F085
:101F28005FF8044B01221A70FB7918460837BD4642
:101F380080BD00BFE4010020A416002080B58EB04B
:101F480000AF7860002387F8373007F108032C22A8
:101F58000021184618F09AFC00F028F8114B1B686D
:101F68007A6813447B6000237B627B68DB43FB60F9
:101F78000023FB614FF000533B624FF480733B63D7
:101F880007F1080301221946074804F06BF80346D5
:101F9800002B01D0FFF76AFB97F83730184638371F
:101FA800BD4680BDE8010020A416002080B582B09F
:101FB80000AF0023FB71084B0122DA654FF48071F2
:101FC800064804F04DF9054B4FF0FF321A63FB79D0
:101FD80018460837BD4680BD00280040A4160020DA
:101FE80080B500AF00F05EF90246034B1A60024B61
:101FF8001B68184680BD00BFE801002080B400AF10
:10200800024B1B681846BD4680BC7047E80100209B
:1020180080B500AF00F046F90246024B1B68D31AA0
:10202800184680BDE801002080B500AF054B1B783D
:10203800002B03D000F036F9034600E000231846D1
:1020480080BD00BFE401002080B400AF0323184620
:10205800BD4680BC7047F0B583B000AF78607B6840
:102068004FF000049E0D9D024FF47A724FF000036A
:1020780028463146FEF76EFD03460C4618460C37D7
:10208800BD46F0BDF0B482B000AF78607B681D46F5
:102098004FF000062B4634464FF000014FF0000287
:1020A800620142EAD36259010B4614465B1B64EB9A
:1020B80006044FF000014FF00002A20042EA9372BA
:1020C80099000B4614465B1944EB06044FF00001D7
:1020D8004FF00002E20042EA5372D9000B46144660
:1020E800194622464FF000034FF000048B0A43EADA
:1020F8008253940A18460837BD46F0BC704780B52D
:1021080084B000AF78607868FFF7A5FFF86000F04A
:10211800C9F8B86000E000BF00F0C4F80246BB6828
:10212800D31AFA689A42F6D800BF1037BD4680BD68
:1021380080B582B000AF786017F0C0FF00BF0837E5
:10214800BD4680BD80B584B000AF786000F09AF8D5
:10215800F860FB680133184600F084F800BF1037B8
:10216800BD4680BD2DE9904888B000AF786000F08A
:1021780099F8F86100F086F8B861BB6919464FF024
:1021880000024FF0000B4FF0000C8C464FF0000B94
:10219800FA6911464FF000021BEB01034CEB0204F5
:1021A800C7E90434D7E904124FF000034FF00004E4
:1021B8008B0A43EA8253940AFB603B699B464FF0C3
:1021C800000C40F2FF314FF000020BEA01030CEA69
:1021D8000204C7E904343B691846FFF753FF034676
:1021E8009AB27B681A80FB6818462037BD46BDE85E
:1021F8009088000080B582B000AF78607A680021CE
:10220800034804F0F7F900BF0837BD4680BD00BF9A
:10221800A416002080B582B000AF78607A680121EA
:10222800034804F0E7F900BF0837BD4680BD00BF8A
:10223800A416002080B500AF0021034804F0F2F98D
:102248000346184680BD00BFA416002080B500AF25
:102258000121034804F0E6F90346184680BD00BF93
:10226800A416002080B582B000AF78607A68022199
:10227800034804F0BFF900BF0837BD4680BD00BF62
:10228800A416002080B582B000AF0221044804F0F3
:10229800C9F978607B6818460837BD4680BD00BF1D
:1022A800A416002080B500AF0348FFF709FE0346D7
:1022B800DB43184680BD00BF0028004080B485B0CD
:1022C80000AF78604FF0B043DA6C4FF0B0417B68F4
:1022D8001343CB644FF0B043DA6C7B681340FB6068
:1022E800FB6800BF1437BD4680BC704780B485B01A
:1022F80000AF78604FF0B0439A6D4FF0B0417B6803
:1023080013438B654FF0B0439A6D7B681340FB60B5
:10231800FB6800BF1437BD4680BC704780B483B0EB
:1023280000AF78604FF0B0439A6D7B68DB434FF0A5
:10233800B04113408B6500BF0C37BD4680BC704769
:1023480080B500AF224B234A1A60214B4FF4E1328B
:102358005A601F4B00229A601D4B0022DA601C4B0A
:1023680000221A611A4B0C225A61194B00229A61F9
:10237800174B0022DA61164B00221A62144B002216
:102388005A62134B00229A62114804F02AFE03464F
:10239800002B01D0FFF76AF900210D4806F090FAEA
:1023A8000346002B01D0FFF761F90021084806F029
:1023B800C5FA0346002B01D0FFF758F9044806F088
:1023C80044FA0346002B01D0FFF750F900BF80BD47
:1023D800481700200044004080B596B000AF7860F0
:1023E80007F1440300221A605A609A60DA601A61A1
:1023F80007F10C0338220021184618F047FA7B68C9
:102408001B68334A93425FD10223FB60314B7B61E7
:1024180007F10C03184603F091FC0346002B01D08A
:10242800FFF724F94FF40030FFF760FF0120FFF7B2
:1024380045FF0C237B640223BB640023FB64032356
:102448003B6507237B6507F1440319464FF090402D
:1024580001F030FF204B214A1A601F4B14225A60AA
:102468001D4B10229A601C4B0022DA601A4B802206
:102478001A61194B00225A61174B00229A61164BB8
:102488000022DA61144B00221A62134801F0CEFAD6
:102498000346002B01D0FFF7E9F810210E4801F0A0
:1024A80005FE0346002B01D0FFF7E0F87B680A4AD7
:1024B8009A67094A7B68936200220221252001F06D
:1024C8007EFA252001F095FA00BF5837BD4680BD39
:1024D8000044004004000C00E816002058000240A8
:1024E80080B582B000AF78607B681B680B4A934266
:1024F80010D14FF40030FFF711FF0C214FF090403E
:1025080002F036F87B689B6F184601F037FB2520F0
:1025180001F07DFA00BF0837BD4680BD0044004089
:1025280080B483B000AF78604FF0B0439A6B4FF03F
:10253800B0417B6813438B6300BF0C37BD4680BC3A
:10254800704780B483B000AF78604FF0B0439A6BA7
:102558007B68DB434FF0B04113408B6300BF0C37FF
:10256800BD4680BC7047000080B483B000AF78607F
:10257800064BD3F8802005497B681343C1F88030A7
:1025880000BF0C37BD4680BC704700BF000800582C
:1025980080B582B000AF7860074A7B681360FEF7A9
:1025A80058FFFFF7CDFE4FF00060FFF7DDFF002377
:1025B80018460837BD4680BDEC01002080B500AF45
:1025C8004FF40030FFF7ACFF4FF40030FFF7B9FFCE
:1025D8000448FFF785FF0F2001F019FA0023184679
:1025E80080BD00BF4817002080B582B000AF78607A
:1025F8000B467B807B881A467968044804F070FD96
:10260800002318460837BD4680BD00BF4817002084
:1026180080B584B000AF7860194A7B6813604FF4C6
:102628000013BB6007F1080393E80600154806F09D
:1026380090F800BF134B1B68DB6903F48033B3F5D4
:10264800803FF7D000BF0F4B1B68DB6903F48003A2
:10265800B3F5800FF7D10B4B1B689A68094B1B68C1
:1026680042F480029A60074806F0CEF80122064933
:10267800044804F006FD002318461037BD4680BD07
:10268800F001002048170020D817002080B500AFBF
:10269800084804F0A6FC0346002B01D0FEF7E6FF2D
:1026A800054801F0C3F90346002B01D0FEF7DEFF11
:1026B80000BF80BD48170020E816002080B582B012
:1026C80000AF7860034B1B680020984700BF0837AD
:1026D800BD4680BDEC01002080B582B000AF7860B7
:1026E8000B4B1B68002B0AD07B68D3F88C30002B6F
:1026F80005D1074B1B680022012106489847012293
:102708000449786804F0BDFC00BF0837BD4680BDA9
:10271800F0010020D81700200D488546FFF7CAFBB6
:102728000C480D490D4A002302E0D458C450043324
:10273800C4188C42F9D30A4A0A4C002301E01360FA
:102748000432A242FBD318F07DF8FEF72CFFFEE717
:102758000080002000000020C801002058B80108AF
:10276800C80100207C180020FEE7000080B400AFFC
:10277800044B5B68034A23F00103536000BFBD4666
:1027880080BC7047002004E080B400AF044B5B6855
:10279800034A23F00203536000BFBD4680BC704764
:1027A800002004E080B400AF044B5B68034A23F0C8
:1027B8000403536000BFBD4680BC7047002004E09E
:1027C80080B582B000AF0023FB71032001F0ECF864
:1027D80003F0D2F80246094B1A600F20FFF7E2FA1D
:1027E8000346002B02D00123FB7101E0FFF733F809
:1027F800FB7918460837BD4680BD00BF3000002071
:1028080080B400AF054B1B781A46054B1B68134470
:10281800034A136000BFBD4680BC704738000020E3
:10282800DC17002080B400AF044B1B68034A23F078
:102838000203136000BFBD4680BC704710E000E093
:1028480080B400AF044B1B68034A43F002031360D3
:1028580000BFBD4680BC704710E000E080B400AF08
:10286800024B1B681846BD4680BC70479075FF1F19
:1028780080B400AF024B1B681846BD4680BC704749
:102888009475FF1F80B400AF024B1B681846BD4605
:1028980080BC70479875FF1F80B500AFFFF766FFD3
:1028A80000BF80BD80B500AFFFF76EFF00BF80BDE1
:1028B80080B500AFFFF776FF00BF80BD80B483B05E
:1028C80000AF786039607B681B6823F0E0723B6872
:1028D8001A437B681A6000BF0C37BD4680BC70473E
:1028E80080B483B000AF78607B681B6803F0E07346
:1028F80018460C37BD4680BC704780B485B000AF21
:10290800F860B9607A60FB685A69BB6803F0040331
:10291800072101FA03F3DB431A40BB6803F0040301
:10292800796801FA03F31A43FB685A6100BF143748
:10293800BD4680BC704780B483B000AF78607B68C8
:10294800DB6803F44063002B01D1012300E000237E
:1029580018460C37BD4680BC704780B485B000AFC0
:10296800F860B9607A60FB689A6ABB6803F01F0375
:102978000F2101FA03F3DB431A407B689B0E03F037
:102988000F01BB6803F01F0301FA03F31A43FB6846
:102998009A6200BF1437BD4680BC704780B483B0CC
:1029A80000AF786039607B689A6A3B68C3F31103AB
:1029B8001A437B689A6200BF0C37BD4680BC7047DB
:1029C80080B483B000AF786039607B689A6A3B68EE
:1029D800C3F31103DB431A407B689A6200BF0C37CC
:1029E800BD4680BC704780B485B000AFF860B96060
:1029F8007A60FB685A69BB681B02DB431A40BB68F4
:102A080019027B680B4023F07C4323F0FF031A4331
:102A1800FB685A6100BF1437BD4680BC704780B45C
:102A280083B000AF78607B689B6823F0104323F085
:102A3800170343F080527B689A6000BF0C37BD468D
:102A480080BC704780B483B000AF78607B689B68B7
:102A580023F0104323F017037A68936000BF0C3704
:102A6800BD4680BC704780B483B000AF78607B6897
:102A78009B6803F08053B3F1805F01D1012300E02C
:102A8800002318460C37BD4680BC704780B483B01D
:102A980000AF78607B689B6823F0004323F017033E
:102AA80043F001027B689A6000BF0C37BD4680BCCA
:102AB800704780B483B000AF78607B689B6823F070
:102AC800004323F0170343F002027B689A6000BFBB
:102AD8000C37BD4680BC704780B483B000AF7860C7
:102AE8007B689B6803F00103012B01D1012300E0FF
:102AF800002318460C37BD4680BC704780B483B0AD
:102B080000AF78607B689B6803F00203022B01D159
:102B1800012300E0002318460C37BD4680BC7047EF
:102B280080B483B000AF78607B689B6823F0004373
:102B380023F0170343F004027B689A6000BF0C3748
:102B4800BD4680BC704780B483B000AF78607B68B6
:102B58009B6823F0004323F0170343F010027B68BF
:102B68009A6000BF0C37BD4680BC704780B483B004
:102B780000AF78607B689B6803F00403042B01D1E5
:102B8800012300E0002318460C37BD4680BC70477F
:102B980080B588B000AF78600023FB770023BB6165
:102BA80000237B610023BB607B68002B01D10123DC
:102BB800ABE17B681B69002B7B689B6D002B09D1FF
:102BC8007868FEF7BFF97B680022DA657B68002227
:102BD80083F854207B681B681846FFF744FF0346B8
:102BE800002B14D17B681B681846FFF718FF9F4B12
:102BF8001B689B099E4AA2FB03239B095B00BB60E1
:102C080002E0BB68013BBB60BB68002BF9D17B6865
:102C18001B681846FFF727FF0346002B0DD17B687A
:102C28009B6D43F010027B689A657B68DB6D43F00F
:102C380001027B68DA650123FB777B681B6818460D
:102C4800FFF794FFF8607B689B6D03F01003002B7F
:102C580040F05281FB68002B40F04E817B689B6DF1
:102C680023F4817343F002027B689A657B681B68D2
:102C78001846FFF731FF0346002B4AD17B681B68D3
:102C8800DB6823F018017B689A687B681B680A4335
:102C9800DA607B685B6803F040427B681B6C1A4310
:102CA8007B685B6C1A437B689B6C1A437B68DB6CA4
:102CB80013437A6913437B617B6893F83C30012B9B
:102CC80003D17B6943F001037B617B681B681A6948
:102CD800684B13407A68126879690B4313617B6803
:102CE8005B68B3F1404F14D07B685B68B3F1804FE9
:102CF8000FD07B685B68B3F1004F0AD05E4B1B684E
:102D080023F470127B685B6803F470135A49134309
:102D18000B607B681B7E9A037B685B7EDB031A4330
:102D28007B689B7E5B0313437A68126B002A02D090
:102D38004FF4805200E000221A437B68DB681A4394
:102D48007B681B69002B04DA7B681B6923F000434E
:102D580001E04FF400131A437B6893F82C305B00B2
:102D68001343BA691343BB617B6893F82030012B86
:102D780014D17B689B7E002B04D1BB6943F480335C
:102D8800BB610BE07B689B6D43F020027B689A6512
:102D98007B68DB6D43F001027B68DA657B685B6A00
:102DA800002B09D07B685B6A03F4E0727B689B6A3E
:102DB8001343BA691343BB617B681B68DB6823F460
:102DC800FE3323F4F3737A681268B9690B43D3604E
:102DD8007B681B681A69294B13407A6812687969FD
:102DE8000B4313617B6818687B685B6B1A4600218C
:102DF800FFF783FD7B6818687B689B6B1A46204940
:102E0800FFF77BFD7B681B69002B08D17B681B687B
:102E18009A6A7B681B6862F00F029A6247E07B68D7
:102E28001B69B3F5001F42D100233B610CE07B68AE
:102E38001A6E3B699B0022FA03F303F00F030F2B72
:102E480006D03B6901333B613B69072BEFD900E0B2
:102E580000BF3B69012B15D17B681B689A6A7B68A8
:102E68001B6862F00F029A6221E000BF3000002068
:102E7800632D3E0502FCFF1F0827014002FCFFDF0F
:102E880004FFFF037B681B689B6A7B68DB6903F1AF
:102E98008043013B9B0003F01C036FF00F0202FA12
:102EA80003F17B681A6E7B681B680A439A627B6829
:102EB8001B68DA68174B1340BA699A420BD17B68D2
:102EC8000022DA657B689B6D23F0030343F001025F
:102ED8007B689A6518E07B689B6D23F0120343F0CA
:102EE80010027B689A657B68DB6D43F001027B68A2
:102EF800DA650123FB7707E07B689B6D43F01002DE
:102F08007B689A650123FB77FB7F18462037BD460F
:102F180080BD00BFE7FF3F8380B584B000AF786015
:102F28007B68002B01D101236AE07B689B6D43F02D
:102F380002027B689A65786800F0B6FA0346FB736C
:102F4800FB7B002B0FD1786800F06AFB0346FB730C
:102F5800FB7B002B02D17B6801229A657B681B688A
:102F68001846FFF76FFD7B681B685B687A68126814
:102F780023F4677323F0030353607B681B6840F2F4
:102F88009F321A607B681B68D9687B681A681E4B79
:102F98000B40D3607B681B681A697B681B6822F04A
:102FA80040421A617B681B685A697B681B6822F07B
:102FB80007025A617B681B681A6A7B681B6802F003
:102FC800F0221A627B681B689B6A7B681B68002278
:102FD8009A620E4B1B680D4A23F0FE7313607868E3
:102FE800FDF7C4FF7B6800221A667B680022DA6559
:102FF8007B6800229A657B68002283F85420FB7B5B
:1030080018461037BD4680BD00023E8308270140A0
:1030180080B584B000AF78607B681B681846FFF7FE
:10302800A5FD0346002B32D17B6893F85430012B61
:1030380001D102232EE07B68012283F854207868AE
:1030480000F070FA0346FB73FB7B002B1AD17B68F8
:103058009B6D23F4706323F0010343F480727B6853
:103068009A657B680022DA657B681B681C221A60F7
:103078007B68002283F854207B681B681846FFF79A
:103088004FFD06E07B68002283F8542001E002230C
:10309800FB73FB7B18461037BD4680BD80B584B0F6
:1030A80000AF78607B6893F85430012B01D102237C
:1030B80022E07B68012283F85420786800F0F4F954
:1030C8000346FB73FB7B002B11D1786800F0A8FA4C
:1030D8000346FB73FB7B002B09D17B689B6D23F4B4
:1030E800807323F0010343F001027B689A657B68D3
:1030F800002283F85420FB7B18461037BD4680BD5C
:1031080080B584B000AF786039607B685B69082B54
:1031180002D10823FB6010E07B681B68DB6803F0C2
:103128000103002B07D07B689B6D43F020027B686E
:103138009A65012370E00423FB60FEF73DFEB8604A
:103148001AE03B68B3F1FF3F16D0FEF735FE0246A2
:10315800BB68D31A3A689A4202D33B68002B0BD15A
:103168007B689B6D43F004027B689A657B6800224C
:1031780083F8542003234FE07B681B681A68FB68B8
:103188001340002BDDD07B689B6D43F400727B6895
:103198009A657B681B681846FFF7CDFB0346002B32
:1031A80031D07B689B7E002B2DD17B681B681B6808
:1031B80003F00803082B26D17B681B681846FFF725
:1031C800D5FC0346002B12D17B681B685A687B68C4
:1031D8001B6822F00C025A607B689B6D23F4807395
:1031E80023F0010343F001027B689A650BE07B68DA
:1031F8009B6D43F020027B689A657B68DB6D43F02A
:1032080001027B68DA657B681B7E002B03D17B6833
:103218001B680C221A60002318461037BD4680BD73
:1032280080B483B000AF78607B681B681B6C18465D
:103238000C37BD4680BC704780B588B000AF786059
:1032480039600023FB770023BB607B681B69B3F1FF
:10325800004F7B6893F85430012B01D1022310E111
:103268007B68012283F854207B681B681846FFF7A7
:103278007DFC0346002B40F0F7803B685B68022B1F
:1032880000F0B1807B681B69B3F1004F04D07B6804
:103298001B697E4A934208D17B681A683B681B68A1
:1032A80019461046FFF77AFB41E07B681A6E3B68C7
:1032B8005B6803F01F030F2101FA03F3DB431A4095
:1032C8003B681B68C3F31103002B05D13B681B68DF
:1032D8009B0E03F01F0311E03B681B683B613B69D1
:1032E80093FAA3F3FB60FB687B617B69002B01D138
:1032F800202303E07B69B3FA83F3DBB239684968BA
:1033080001F01F018B401A437B681A663B685B68B3
:103318009B085A1C7B68DB699A4208D87B68186846
:103328003B6859683B681B681A46FFF716FB7B68C1
:1033380018683B6819683B689B681A46FFF753FB97
:103348003B681B68002B80F297805148FFF7C8FA4A
:10335800B8613B681B684F4A934220D1BB6903F4AC
:103368000003002B1BD1BB6943F4000319464848EE
:10337800FFF7A4FA484B1B689B09484AA2FB0323A2
:103388009A0913465B0013449B000133BB6002E0BB
:10339800BB68013BBB60BB68002BF9D16CE03B68A4
:1033A8001B683F4A93420CD1BB6903F08073002B22
:1033B80007D1BB6943F0807319463548FFF77EFA99
:1033C8005AE03B681B68374A934255D1BB6903F4FE
:1033D8008003002B50D1BB6943F4800319462C4865
:1033E800FFF76CFA48E07B681B69B3F1004F04D023
:1033F8007B681B69254A934207D17B681A683B683A
:103408001B6819461046FFF7DBFA3B681B68002B60
:1034180032DA1F48FFF764FAB8613B681B681D4A37
:10342800934207D1BB6923F4000319461848FFF7F4
:1034380045FA21E03B681B68194A934207D1BB69EA
:1034480023F0807319461248FFF738FA14E03B68F6
:103458001B68144A93420FD1BB6923F480031946B1
:103468000B48FFF72BFA07E07B689B6D43F02002BF
:103478007B689A650123FB777B68002283F85420D8
:10348800FB7F18462037BD4680BD00BF0400008082
:1034980008270140001000B030000020632D3E05D1
:1034A800004000B8002000B480B584B000AF786058
:1034B8007B681B681846FFF759FB0346002B2CD086
:1034C8007B681B681846FFF719FB0346002B04D1DD
:1034D8007B681B681846FFF736FBFEF76DFCF86043
:1034E80014E0FEF769FC0246FB68D31A022B0DD9DB
:1034F8007B689B6D43F010027B689A657B68DB6D87
:1035080043F001027B68DA65012307E07B681B68EA
:103518009B6803F00403002BE3D1002318461037FF
:10352800BD4680BD80B584B000AF78600023BB6025
:103538007B681B681846FFF7CFFA0346002B62D159
:103548007B681B689A68324B1340002B0DD07B6850
:103558009B6D43F010027B689A657B68DB6D43F0D6
:1035680001027B68DA6501234EE07B681B68184618
:10357800FFF78CFA2748FFF7B3F9034603F4000373
:10358800002B0FD0244B1B689B09244AA2FB032362
:103598009B090133BB6002E0BB68013BBB60BB68B1
:1035A800002BF9D17B685B7E012B2CD0FEF704FC45
:1035B800F86021E07B681B681846FFF78DFA034620
:1035C800002B04D17B681B681846FFF75FFAFEF7EB
:1035D800F3FB0246FB68D31A022B0DD97B689B6D5F
:1035E80043F010027B689A657B68DB6D43F001024B
:1035F8007B68DA65012307E07B681B681B6803F0BA
:103608000103012BD6D1002318461037BD4680BDD3
:10361800170000800827014030000020632D3E0578
:1036280080B584B000AF78607B681B681846FFF7E8
:1036380065FAF8607B681B681846FFF74DFA034681
:10364800002B40D0FB68002B3DD17B681B689B6832
:1036580003F00503012B0CD17B681B681846FFF7A4
:1036680028FA7B681B6803221A60FEF7A5FBB8607E
:1036780022E07B689B6D43F010027B689A657B684B
:10368800DB6D43F001027B68DA6501231CE0FEF77D
:1036980093FB0246BB68D31A022B0DD97B689B6D3E
:1036A80043F010027B689A657B68DB6D43F001028A
:1036B8007B68DA65012307E07B681B689B6803F079
:1036C8000103002BE3D1002318461037BD4680BD07
:1036D80080B483B000AF78607B689B6803F0010317
:1036E800012B01D1012300E0002318460C37BD4609
:1036F80080BC704780B483B000AF78607B689B68FB
:1037080003F00043B3F1004F01D1012300E000238F
:1037180018460C37BD4680BC704780B586B000AFF0
:1037280078600023FB607B6893F85430012B01D14B
:10373800022368E07B68012283F854207868FFF749
:103748006FFF0346FB757B681B681846FFF7C0FFD1
:103758000346002B4CD17B689B6D23F4817343F0A7
:1037680002027B689A657B681B68DB6803F00303C9
:103778003B617B681B68DA687B681B6822F0030280
:10378800DA607B681B689A687B681B6842F00042B5
:103798009A6014E0FB680133FB60FB68B3F52E3FC9
:1037A8000DD37B689B6D23F0120343F010027B68F6
:1037B8009A657B68002283F85420012323E07B6804
:1037C8001B681846FFF796FF0346002BE2D17B687B
:1037D8001B68D9687B681B683A690A43DA607B68AA
:1037E8009B6D23F0030343F001027B689A6505E0B3
:1037F8007B689B6D43F010027B689A657B680022AA
:1038080083F85420FB7D18461837BD4680BD00005C
:1038180080B485B000AF78607B6803F00703FB6075
:103828000C4BDB68BB60BA684FF6FF031340BB6004
:10383800FB681A02BB68134343F0BF6343F40033C9
:10384800BB60044ABB68D36000BF1437BD4680BC68
:10385800704700BF00ED00E080B400AF044BDB68A8
:103868001B0A03F007031846BD4680BC704700BF1B
:1038780000ED00E080B483B000AF0346FB7197F918
:103888000730002B0BDBFB7903F01F02064997F981
:1038980007305B09012000FA02F241F8232000BF3B
:1038A8000C37BD4680BC704700E100E080B483B0AF
:1038B80000AF0346FB7197F90730002B10DBFB794B
:1038C80003F01F02094997F907305B09012000FA44
:1038D80002F2203341F82320BFF34F8FBFF36F8FDD
:1038E80000BF0C37BD4680BC704700BF00E100E058
:1038F80080B483B000AF03463960FB7197F9073095
:10390800002B0ADB3B68DAB20C4997F90730120141
:10391800D2B20B4483F800230AE03B68DAB20849C4
:10392800FB7903F00F03043B1201D2B20B441A7661
:1039380000BF0C37BD4680BC704700BF00E100E007
:1039480000ED00E080B489B000AFF860B9607A603B
:10395800FB6803F00703FB61FB69C3F10703042B52
:1039680028BF0423BB61FB690433062B02D9FB691A
:10397800033B00E000237B614FF0FF32BB6902FA92
:1039880003F3DA43BB681A407B699A404FF0FF3172
:103998007B6901FA03F3D9437B680B40134318464C
:1039A8002437BD4680BC704780B582B000AF7860D0
:1039B8007868FFF72DFF00BF0837BD4680BD80B58A
:1039C80086B000AF0346B9607A60FB73FFF744FF27
:1039D80078617A68B9687869FFF7B4FF024697F9A1
:1039E8000F3011461846FFF783FF00BF1837BD4652
:1039F80080BD80B582B000AF0346FB7197F90730F0
:103A08001846FFF737FF00BF0837BD4680BD80B5B1
:103A180082B000AF0346FB7197F907301846FFF7ED
:103A280045FF00BF0837BD4680BD000080B582B0A5
:103A380000AF78607B68002B01D101238EE07B68A2
:103A48001B681A46474B9A420FD87B681B681A4670
:103A5800454B1344454AA2FB03231B099A007B6884
:103A68005A647B68424A1A640EE07B681B681A46EF
:103A7800404B13443D4AA2FB03231B099A007B6871
:103A88005A647B683C4A1A647B68022283F82520C2
:103A98007B681B681B687A68126823F4FF4323F06D
:103AA800700313607B681B6819687B689A687B6879
:103AB800DB681A437B681B691A437B685B691A4396
:103AC8007B689B691A437B68DB691A437B681B6ABE
:103AD8001A437B681B680A431A60786800F052FB37
:103AE8007B689B68B3F5804F02D17B6800225A60DF
:103AF8007B685A687B689B6C02F07F021A607B685F
:103B0800DB6C7A68126D5A607B685B68002B10D09A
:103B18007B685B68042B0CD8786800F07BFB7B68BB
:103B28005B6D00221A607B689B6D7A68D26D5A6063
:103B380008E07B6800225A657B6800229A657B68EA
:103B48000022DA657B680022DA637B68012283F849
:103B580025207B68002283F8242000231846083794
:103B6800BD4680BD07040240F8FFFDBFCDCCCCCCDC
:103B780000000240F8FBFDBF0004024080B582B09F
:103B880000AF78607B68002B01D101237BE07B6864
:103B98001B681A687B681B6822F001021A607B6840
:103BA8001B681A463A4B9A420FD87B681B681A461C
:103BB800384B1344384AA2FB03231B099A007B683D
:103BC8005A647B68354A1A640EE07B681B681A469B
:103BD800334B1344304AA2FB03231B099A007B682A
:103BE8005A647B682F4A1A647B681B6800221A6033
:103BF8007B685B6C03F01C027B681B6C012101FA7B
:103C080002F25A60786800F0BDFA7B689B6C00226B
:103C18001A607B68DB6C7A68126D5A607B685B6837
:103C2800002B0FD07B685B68042B0BD8786800F0FA
:103C3800F1FA7B685B6D00221A607B689B6D7A687D
:103C4800D26D5A607B6800225A657B6800229A65AB
:103C58007B680022DA657B680022DA627B680022D2
:103C68001A637B6800225A637B6800229A637B6828
:103C78000022DA637B68002283F825207B68002213
:103C880083F82420002318460837BD4680BD00BFAE
:103C980007040240F8FFFDBFCDCCCCCC00000240A9
:103CA800F8FBFDBF0004024080B586B000AFF860A5
:103CB800B9607A603B600023FB75FB6893F8243099
:103CC800012B01D1022369E0FB68012283F824203B
:103CD800FB6893F82530DBB2012B55D1FB68022233
:103CE80083F82520FB680022DA63FB681B681A68E2
:103CF800FB681B6822F001021A603B687A68B968A1
:103D0800F86800F002FAFB681B6B002B08D0FB6810
:103D18001B681A68FB681B6842F00E021A600FE005
:103D2800FB681B681A68FB681B6822F004021A60AB
:103D3800FB681B681A68FB681B6842F00A021A6075
:103D4800FB689B6C1B6803F48033002B07D0FB686F
:103D58009B6C1A68FB689B6C42F480721A60FB6863
:103D68005B6D002B07D0FB685B6D1A68FB685B6DA9
:103D780042F480721A60FB681B681A68FB681B684B
:103D880042F001021A6008E0FB688022DA63FB68EF
:103D9800002283F824200123FB75FB7D1846183781
:103DA800BD4680BD80B483B000AF78607B68002BCF
:103DB80001D101234FE07B6893F82530DBB2022B59
:103DC80008D07B680422DA637B68002283F8242009
:103DD800012340E07B681B681A687B681B6822F037
:103DE8000E021A607B689B6C1A687B689B6C22F4D5
:103DF80080721A607B681B681A687B681B6822F0EF
:103E080001021A607B685B6C03F01C027B681B6C08
:103E1800012101FA02F25A607B68DB6C7A68126D44
:103E28005A607B685B6D002B0CD07B685B6D1A68F1
:103E38007B685B6D22F480721A607B689B6D7A6880
:103E4800D26D5A607B68012283F825207B680022A6
:103E580083F82420002318460C37BD4680BC7047E1
:103E680080B584B000AF78600023FB737B6893F85B
:103E78002530DBB2022B05D07B680422DA630123EC
:103E8800FB7347E07B681B681A687B681B6822F035
:103E98000E021A607B681B681A687B681B6822F030
:103EA80001021A607B689B6C1A687B689B6C22F421
:103EB80080721A607B685B6C03F01C027B681B6C69
:103EC800012101FA02F25A607B68DB6C7A68126D94
:103ED8005A607B685B6D002B0CD07B685B6D1A6841
:103EE8007B685B6D22F480721A607B689B6D7A68D0
:103EF800D26D5A607B68012283F825207B680022F6
:103F080083F824207B689B6B002B03D07B689B6B1A
:103F180078689847FB7B18461037BD4680BD00007F
:103F280080B584B000AF78607B681B6C1B68FB6051
:103F38007B681B681B68BB607B685B6C03F01C03B9
:103F480004229A40FB681340002B27D0BB6803F07B
:103F58000403002B22D07B681B681B6803F0200336
:103F6800002B07D17B681B681A687B681B6822F0E6
:103F780004021A607B685B6C03F01C027B681B6C94
:103F8800042101FA02F25A607B681B6B002B00F0D7
:103F980081807B681B6B786898477BE07B685B6CEB
:103FA80003F01C0302229A40FB681340002B3DD00B
:103FB800BB6803F00203002B38D07B681B681B68C2
:103FC80003F02003002B0BD17B681B681A687B6801
:103FD8001B6822F00A021A607B68012283F82520F8
:103FE8007B681B681A462E4B9A4209D97B685B6C22
:103FF80003F01C032B4A022101FA03F3536008E083
:104008007B685B6C03F01C03274A022101FA03F367
:1040180053607B68002283F824207B68DB6A002BCE
:1040280038D07B68DB6A7868984733E07B685B6CDC
:1040380003F01C0308229A40FB681340002B2AD087
:10404800BB6803F00803002B25D07B681B681A683F
:104058007B681B6822F00E021A607B685B6C03F0B9
:104068001C027B681B6C012101FA02F25A607B6812
:104078000122DA637B68012283F825207B6800220D
:1040880083F824207B685B6B002B04D07B685B6B18
:104098007868984700BF00BF1037BD4680BD00BF95
:1040A80080000240000402400000024080B485B055
:1040B80000AF786039600023FB727B68002B03D166
:1040C8000123FB72FB7A1BE07B681B681B68FB60A3
:1040D8003B6803F01003002B0DD03B6803F48013FA
:1040E800002B04D0FB6843F48013FB6003E0FB68FB
:1040F80023F48013FB607B681B68FA681A60FB7AFC
:1041080018461437BD4680BC704780B485B000AFF0
:10411800F860B9607A603B60FB68DB6CFA68126D26
:104128005A60FB685B6D002B04D0FB689B6DFA68D6
:10413800D26D5A60FB685B6C03F01C02FB681B6C59
:10414800012101FA02F25A60FB681B683A685A605A
:10415800FB689B68102B08D1FB681B687A689A601B
:10416800FB681B68BA68DA6007E0FB681B68BA6816
:104178009A60FB681B687A68DA6000BF1437BD462E
:1041880080BC704780B485B000AF78607B681B68DE
:104198001A461C4B9A4213D87B685B6C9B089B00A1
:1041A80003F1804303F502337A6893647B681B68E4
:1041B800DBB2083B144AA2FB03231B09FB6011E096
:1041C8007B685B6C9B089A00104B13447A68936475
:1041D8007B681B68DBB2083B0B4AA2FB03231B0965
:1041E8000733FB607B680A4ADA64FB6803F01F0345
:1041F80001229A407B681A6500BF1437BD4680BC0F
:10420800704700BF07040240CDCCCCCC1C0802404C
:104218008008024080B485B000AF78607B685B6836
:1042280003F07F03FB60FA680A4B13449B001A46AD
:104238007B685A657B68084A9A65FB68013B03F00E
:10424800030301229A407B68DA6500BF1437BD4634
:1042580080BC70473F8200104009024080B487B09C
:1042680000AFF8600B467A60FB720023FB75FB7A9F
:10427800002B03D1FB687A685A6002E00123FB75C2
:1042880000BFFB7D18461C37BD4680BC704780B414
:1042980083B000AF786039607B68002B01D10123BF
:1042A80003E07B683A681A60002318460C37BD465D
:1042B80080BC704780B487B000AF78603960002355
:1042C8007B6140E13B681A6801217B6901FA03F3CD
:1042D8001340FB60FB68002B00F032813B685B6891
:1042E800012B0BD03B685B68022B07D03B685B68EF
:1042F800112B03D03B685B68122B30D17B689B681D
:104308003B617B695B00032202FA03F3DB433A69F2
:1043180013403B613B68DA687B695B0002FA03F390
:104328003A6913433B617B683A699A607B685B68CA
:104338003B6101227B6902FA03F3DB433A691340CC
:104348003B613B685B681B0903F001027B6902FA69
:1043580003F33A6913433B617B683A695A607B68A7
:10436800DB683B617B695B00032202FA03F3DB43F2
:104378003A6913403B613B689A687B695B0002FAC3
:1043880003F33A6913433B617B683A69DA603B6837
:104398005B68022B03D03B685B68122B23D17B69D7
:1043A800DA087B68083253F822303B617B6903F0F6
:1043B80007039B000F2202FA03F3DB433A69134019
:1043C8003B613B681A697B6903F007039B0002FAAB
:1043D80003F33A6913433B617B69DA087B68083267
:1043E800396943F822107B681B683B617B695B0075
:1043F800032202FA03F3DB433A6913403B613B684B
:104408005B6803F003027B695B0002FA03F33A6915
:1044180013433B617B683A691A603B685B6803F049
:104428008053002B00F08C804D4A7B699B08023337
:1044380052F823303B617B6903F003039B0007229A
:1044480002FA03F3DB433A6913403B617B68B3F13B
:10445800904F0DD07B68434A934207D07B68424A0D
:10446800934201D1022304E0072302E0012300E084
:1044780000237A6902F00302920093403A691343D9
:104488003B6137497B699B0802333A6941F823202D
:10449800364BD3F880303B61FB68DB433A69134005
:1044A8003B613B685B6803F48033002B03D03A69B7
:1044B800FB6813433B612D4A3B69C2F880302B4BA4
:1044C800D3F884303B61FB68DB433A6913403B61B6
:1044D8003B685B6803F40033002B03D03A69FB6840
:1044E80013433B61214A3B69C2F884301F4B1B6868
:1044F8003B61FB68DB433A6913403B613B685B689F
:1045080003F48013002B03D03A69FB6813433B6123
:10451800164A3B691360154B5B683B61FB68DB43DC
:104528003A6913403B613B685B6803F40013002B56
:1045380003D03A69FB6813433B610C4A3B695360FB
:104548007B6901337B613B681A687B6922FA03F354
:10455800002B7FF4B7AE00BF1C37BD4680BC704748
:104568000000014000040048000800480008005806
:1045780080B487B000AF7860396000237B61AFE01A
:1045880001227B6902FA03F33A6813403B613B69F5
:10459800002B00F0A280584A7B699B08023352F82E
:1045A8002330FB607B6903F003039B00072202FAB8
:1045B80003F3FA681340FB607B68B3F1904F0DD0AA
:1045C8007B684E4A934207D07B684D4A934201D19B
:1045D800022304E0072302E0012300E000237A69B4
:1045E80002F0030292009340FA689A4236D1454B92
:1045F800D3F880203B69DB4342491340C1F880303F
:10460800404BD3F884203B69DB433E491340C1F853
:1046180084303C4B1A683B69DB433A4913400B60D2
:10462800384B5A683B69DB43364913404B607B691A
:1046380003F003039B00072202FA03F3FB602E4AF0
:104648007B699B08023352F82310FB68DA432A4837
:104658007B699B080A40023340F823207B681A686C
:104668007B695B00032101FA03F31A437B681A6034
:104678007B69DA087B68083253F822107B6903F0FB
:1046880007039B000F2202FA03F3DB437A69D2087F
:1046980019407B68083243F822107B689A687B6966
:1046A8005B00032101FA03F3DB431A407B689A603D
:1046B8007B685A6801217B6901FA03F3DB431A40DE
:1046C8007B685A607B68DA687B695B00032101FAC2
:1046D80003F3DB431A407B68DA607B6901337B6153
:1046E8003A687B6922FA03F3002B7FF449AF00BFD5
:1046F8001C37BD4680BC70470000014000040048DC
:10470800000800480008005880B483B000AF786003
:104718000B467B8013467B707B78002B03D07A880E
:104728007B689A6102E07A887B689A6200BF0C37DE
:10473800BD4680BC704780B485B000AF78600B463A
:104748007B807B685B69FB607A88FB6813401A048E
:10475800FB68D9437B880B401A437B689A6100BF8A
:104768001437BD4680BC704780B582B000AF0346A1
:10477800FB80084BDA68FB881340002B06D0054AFB
:10478800FB88D360FB88184604F066FA00BF083738
:10479800BD4680BD0008005880B400AF044B1B68BC
:1047A800034A43F48073136000BFBD4680BC704762
:1047B8000004005880B582B000AF78600B46FB70EB
:1047C8007B68002B0CD1134B5B6903F40073B3F5C2
:1047D800007F0DD100F03CF80346002B08D015E00F
:1047E8000C4B5B6903F40073002B01D100F022F835
:1047F800094B1B69084A23F004031361FB78012B5A
:1048080001D130BF02E040BF20BF20BF0837BD46FE
:1048180080BD00BF0004005800ED00E080B400AF88
:10482800034B1B6803F4C0631846BD4680BC704741
:104838000004005880B400AF044B1B68034A43F4DB
:104848008043136000BFBD4680BC70470004005819
:1048580080B483B000AF164B1B68154A23F480431D
:104868001360144B1B68322202FB03F3124AA2FBAB
:1048780003239B0C7B6002E07B68013B7B600C4B55
:104888005B6903F40073B3F5007F02D17B68002BEA
:10489800F2D1074B5B6903F40073B3F5007F01D1D4
:1048A800032300E0002318460C37BD4680BC704740
:1048B800000400583000002083DE1B4380B483B01E
:1048C80000AF0346FB71104B1B6823F007030E4A29
:1048D80043F0020313600D4B1B690C4A43F00403B9
:1048E8001361FB79012B01D130BF02E040BF20BF2B
:1048F80020BF064B1B69054A23F00403136100BF60
:104908000C37BD4680BC70470004005800ED00E03D
:1049180080B400AF064B1B6803F48073B3F5807F47
:1049280001D1012300E000231846BD4680BC704732
:104938000004005880B400AF4FF0B0431B684FF03C
:10494800B04243F40013136000BFBD4680BC7047FB
:1049580080B400AF4FF0B0431B684FF0B04223F46F
:104968000013136000BFBD4680BC704780B400AF21
:104978004FF0B0431B6803F48013B3F5801F01D1D7
:10498800012300E000231846BD4680BC704780B470
:1049980000AF4FF0B0431B684FF0B04243F4803390
:1049A800136000BFBD4680BC704780B400AF4FF0B5
:1049B800B0431B684FF0B04223F48033136000BF4C
:1049C800BD4680BC704780B400AF4FF0B0431B6851
:1049D80003F40033B3F5003F01D1012300E00023C5
:1049E8001846BD4680BC704780B400AF4FF0B04356
:1049F8001B684FF0B04243F48073136000BFBD469C
:104A080080BC704780B400AF4FF0B0431B684FF0D4
:104A1800B04223F48073136000BFBD4680BC70476A
:104A280080B400AF4FF0B0431B6803F48063B3F564
:104A3800806F01D1012300E000231846BD4680BCE9
:104A4800704780B483B000AF78604FF0B0435B68C4
:104A580023F0FE427B681B064FF0B04113434B60C6
:104A680000BF0C37BD4680BC704780B400AF4FF024
:104A7800B043D3F8903003F00203022B01D1012395
:104A880000E000231846BD4680BC704780B400AFE4
:104A98004FF0B043D3F894304FF0B04243F00103E5
:104AA800C2F8943000BFBD4680BC704780B400AFE8
:104AB8004FF0B043D3F894304FF0B04223F00103E5
:104AC800C2F8943000BFBD4680BC704780B400AFC8
:104AD8004FF0B043D3F8943003F00203022B01D116
:104AE800012300E000231846BD4680BC704780B40F
:104AF80000AF4FF0B0431B684FF0B04243F00103E2
:104B0800136000BFBD4680BC704780B400AF4FF053
:104B1800B0431B684FF0B04223F00103136000BF9D
:104B2800BD4680BC704780B400AF4FF0B0431B68EF
:104B380003F00203022B01D1012300E000231846F1
:104B4800BD4680BC704780B400AF4FF0B0431B68CF
:104B580003F00803082B01D1012300E000231846C5
:104B6800BD4680BC704780B400AF4FF0B0431B68AF
:104B780003F0F0031846BD4680BC704780B400AF10
:104B88004FF0B043D3F8943003F470631846BD4631
:104B980080BC704780B483B000AF78604FF0B043FA
:104BA8005B6823F47F427B681B024FF0B0411343DC
:104BB8004B6000BF0C37BD4680BC704780B483B0E3
:104BC80000AF78604FF0B0439B6823F003024FF0CA
:104BD800B0417B6813438B6000BF0C37BD4680BC77
:104BE800704780B400AF4FF0B0439B6803F00C03EC
:104BF8001846BD4680BC704780B483B000AF78606B
:104C08004FF0B0439B6823F0F0024FF0B0417B684F
:104C180013438B6000BF0C37BD4680BC704780B41F
:104C280083B000AF78604FF0B043D3F8083123F079
:104C3800F0024FF0B0417B681343C1F8083100BF60
:104C48000C37BD4680BC704780B483B000AF786035
:104C58004FF0B043D3F8083123F00F027B681B09EB
:104C68004FF0B0411343C1F8083100BF0C37BD46BF
:104C780080BC704780B483B000AF78604FF0B04319
:104C88009B6823F4E0624FF0B0417B6813438B606C
:104C980000BF0C37BD4680BC704780B483B000AFFE
:104CA80078604FF0B0439B6823F460524FF0B041F6
:104CB8007B6813438B6000BF0C37BD4680BC7047D0
:104CC80080B400AF4FF0B0439B6803F0F003184680
:104CD800BD4680BC704780B400AF4FF0B043D3F8F6
:104CE80008311B0103F0F0031846BD4680BC70472D
:104CF80080B400AF4FF0B0439B6803F4E0631846FC
:104D0800BD4680BC704780B400AF4FF0B0439B688D
:104D180003F460531846BD4680BC704780B400AFAA
:104D28004FF0B0431B684FF0B04243F080731360FC
:104D380000BFBD4680BC704780B400AF4FF0B043A1
:104D48001B684FF0B04223F08073136000BFBD466C
:104D580080BC704780B400AF4FF0B0431B6803F0CD
:104D68000073B3F1007F01D1012300E0002318464E
:104D7800BD4680BC704780B400AF4FF0B043DB68DD
:104D88001B0A03F07F031846BD4680BC704780B4F9
:104D980000AF4FF0B043DB6803F060431846BD46F0
:104DA80080BC704780B400AF4FF0B043DB6803F0BD
:104DB80070031846BD4680BC704780B400AF4FF002
:104DC800B043DB6803F003031846BD4680BC704758
:104DD80080B400AF4FF0B0439B6803F48033B3F561
:104DE800803F01D1012300E000231846BD4680BC66
:104DF800704780B400AF4FF0B043D3F8083103F4E4
:104E08000033B3F5003F01D1012300E00023184629
:104E1800BD4680BC704780B400AF4FF0B043D3F8B4
:104E2800083103F48033B3F5803F01D1012300E05A
:104E380000231846BD4680BC704780B400AF4FF0D1
:104E4800B0439B6803F40033B3F5003F01D101235D
:104E580000E000231846BD4680BC704780B400AF10
:104E68004FF0B0439B6803F48023B3F5802F01D142
:104E7800012300E000231846BD4680BC70470000AF
:104E880080B588B000AF78607B68002B01D1012322
:104E98008AE3FFF7A6FEF861FFF78FFFB8617B682A
:104EA8001B6803F02003002B00F0C980FB69002B6E
:104EB80005D0FB690C2B7BD1BB69012B78D1FFF79F
:104EC80032FE0346002B05D07B681B6A002B01D1FC
:104ED800012369E37B689A6A4FF0B0431B6803F0CB
:104EE8000803002B05D04FF0B0431B6803F0F00314
:104EF80006E04FF0B043D3F894301B0903F0F003F9
:104F0800934222D27B689B6A184600F06DFD0346E7
:104F1800002B01D0012347E34FF0B0431B684FF04B
:104F2800B04243F0080313604FF0B0431B6823F00E
:104F3800F0027B689B6A4FF0B04113430B607B68BB
:104F48005B6A1846FFF726FE21E04FF0B0431B6866
:104F58004FF0B04243F0080313604FF0B0431B68B2
:104F680023F0F0027B689B6A4FF0B04113430B605B
:104F78007B685B6A1846FFF70DFE7B689B6A1846DC
:104F880000F032FD0346002B01D001230CE300F0B2
:104F9800F3FC0246B44B1A60B44B1B681846FCF786
:104FA80001FF0346FB74FB7C002B47D0FB7CFBE234
:104FB8007B681B6A002B2CD0FFF799FDFCF7FCFEE1
:104FC800786108E0FCF7F8FE02467B69D31A022BE9
:104FD80001D90323E8E2FFF7A6FD0346002BF1D031
:104FE8004FF0B0431B684FF0B04243F00803136022
:104FF8004FF0B0431B6823F0F0027B689B6A4FF0C8
:10500800B04113430B607B685B6A1846FFF7C2FD2B
:1050180015E0FFF77AFDFCF7CFFE786108E0FCF7B2
:10502800CBFE02467B69D31A022B01D90323BBE2CC
:10503800FFF779FD0346002BF1D100E000BF7B6844
:105048001B6803F00103002B5FD0FB69082B05D018
:10505800FB690C2B0DD1BB69032B0AD1FFF7B3FCFD
:105068000346002B50D07B685B68002B4CD1012392
:105078009AE24FF0B0431B6823F480127B689B6868
:105088004FF0B04113430B607B685B68B3F5803F1A
:1050980002D1FFF77CFC0DE07B685B68B3F5041F69
:1050A80004D1FFF747FCFFF772FC03E0FFF77DFC34
:1050B800FFF74EFC7B685B68002B12D0FCF77CFE88
:1050C800786108E0FCF778FE02467B69D31A642B06
:1050D80001D9032368E2FFF776FC0346002BF1D0E1
:1050E80013E0FCF769FE786108E0FCF765FE02460C
:1050F8007B69D31A642B01D9032355E2FFF763FCBC
:105108000346002BF1D100E000BF7B681B6803F069
:105118000203002B4BD0FB69042B05D0FB690C2B39
:1051280013D1BB69022B10D1FFF77AFC0346002B81
:1051380005D07B681B69002B01D1012334E27B6811
:105148005B691846FFF77DFC31E07B681B69002B23
:1051580019D0FFF749FCFCF72FFE786108E0FCF74F
:105168002BFE02467B69D31A022B01D903231BE2CB
:10517800FFF756FC0346002BF1D07B685B691846A5
:10518800FFF75FFC13E0FFF73DFCFCF715FE7861C5
:1051980008E0FCF711FE02467B69D31A022B01D9FD
:1051A800032301E2FFF73CFC0346002BF1D17B68A7
:1051B8001B6803F00803002B6ED07B689B69002BEB
:1051C80056D04FF0B043D3F89430FB607B68DA696F
:1051D800FB6803F010039A4231D0FB6803F0020326
:1051E800002B06D0FB6803F00103002B01D101233B
:1051F800DAE1FB6803F00103002B13D0FFF756FC3C
:10520800FCF7DAFD786108E0FCF7D6FD02467B6919
:10521800D31A112B01D90323C6E1FFF757FC034624
:10522800002BF1D14FF0B043D3F8943023F01002A3
:105238007B68DB694FF0B0411343C1F89430FFF746
:1052480025FCFCF7B9FD786108E0FCF7B5FD0246DE
:105258007B69D31A112B01D90323A5E1FFF736FC8B
:105268000346002BF1D017E0300000203400002066
:10527800FFF71CFCFCF7A0FD786108E0FCF79CFD3B
:1052880002467B69D31A112B01D903238CE1FFF75E
:105298001DFC0346002BF1D17B681B6803F0040357
:1052A800002B00F0D880FFF733FB0346002B13D107
:1052B800FFF772FAFCF780FD786108E0FCF77CFDE7
:1052C80002467B69D31A022B01D903236CE1FFF74D
:1052D8001FFB0346002BF1D07B68DB68002B7BD0DB
:1052E8007B68DB68852B03D07B68DB68052B09D1DD
:1052F8004FF0B043D3F890304FF0B04243F004037E
:10530800C2F89030FCF758FD78614FF0B043D3F8FD
:1053180090304FF0B04243F00103C2F890300AE0F9
:10532800FCF74AFD02467B69D31A41F28832934260
:1053380001D9032338E1FFF798FB0346002BEFD090
:105348007B68DB68812B03D07B68DB68852B21D1E8
:10535800FCF732FD78614FF0B043D3F890304FF04E
:10536800B04243F08003C2F890300AE0FCF724FD15
:1053780002467B69D31A41F28832934201D903234A
:1053880012E14FF0B043D3F8903003F40063002BE0
:10539800ECD060E0FCF710FD78614FF0B043D3F833
:1053A80090304FF0B04223F08003C2F890300AE00A
:1053B800FCF702FD02467B69D31A41F28832934218
:1053C80001D90323F0E04FF0B043D3F8903003F451
:1053D8000063002BECD13EE0FCF7EEFC78614FF067
:1053E800B043D3F890304FF0B04223F08003C2F8B6
:1053F80090300AE0FCF7E0FC02467B69D31A41F2E0
:105408008832934201D90323CEE04FF0B043D3F85A
:10541800903003F40063002BECD1FCF7CDFC7861ED
:105428004FF0B043D3F890304FF0B04223F001036F
:10543800C2F890300AE0FCF7BFFC02467B69D31A39
:1054480041F28832934201D90323ADE0FFF70DFB07
:105458000346002BEFD17B68DB6A002B00F0A380AA
:10546800FB690C2B76D07B68DB6A022B4BD1FFF7EC
:1054780063FCFCF7A1FC786108E0FCF79DFC0246A0
:105488007B69D31A0A2B01D903238DE0FFF762FC4D
:105498000346002BF1D14FF0B043DA68444B134078
:1054A8007A68116B7A68526B11437A68926B1202B0
:1054B80011437A68D26B11437A68126C11437A6887
:1054C800526C0A434FF0B0411343CB60FFF726FC00
:1054D8004FF0B043DB684FF0B04243F08053D360E5
:1054E800FCF76AFC786108E0FCF766FC02467B6919
:1054F800D31A0A2B01D9032356E0FFF72BFC0346E6
:10550800002BF1D04FE0FFF717FC4FF0B043DB68FA
:105518004FF0B04223F00303D3604FF0B043DB6891
:105528004FF0B04223F0885323F48033D360FCF764
:1055380043FC786108E0FCF73FFC02467B69D31A1C
:105548000A2B01D903232FE0FFF704FC0346002BA5
:10555800F1D128E07B68DB6A012B01D1012323E02C
:105568004FF0B043DB68BB61BB6903F003027B68A3
:105578001B6B9A4215D1BB6903F070027B685B6BA9
:105588009A420ED1BB6903F4FE427B689B6B1B02F7
:105598009A4206D1BB6903F060427B685B6C9A4211
:1055A80001D0012300E0002318462037BD4680BD06
:1055B8008C80C11180B584B000AF786039607B6899
:1055C800002B01D101232CE1984B1B6803F0070342
:1055D8003A689A421BD9954B1B6823F007029349F6
:1055E8003B6813430B60FCF7E7FBF86008E0FCF747
:1055F800E3FB0246FB68D31A022B01D9032310E10F
:105608008A4B1B6803F007033A689A42EFD17B681C
:105618001B6803F00203002B16D07B689B681846B2
:10562800FFF7EAFAFCF7C8FBF86008E0FCF7C4FBF0
:105638000246FB68D31A022B01D90323F1E0FFF7D6
:10564800C7FB0346002BF1D07B681B6803F02003DF
:10565800002B16D07B685B691846FFF7E0FAFCF769
:10566800ABFBF86008E0FCF7A7FB0246FB68D31A1F
:10567800022B01D90323D4E0FFF7BBFB0346002B21
:10568800F1D07B681B6803F04003002B16D07B68C1
:105698009B691846FFF7D8FAFCF78EFBF86008E01C
:1056A800FCF78AFB0246FB68D31A022B01D90323B5
:1056B800B7E0FFF7B0FB0346002BF1D07B681B680F
:1056C80003F00403002B16D07B68DB681846FFF74D
:1056D800D1FAFCF771FBF86008E0FCF76DFB0246B5
:1056E800FB68D31A022B01D903239AE0FFF7A5FB25
:1056F8000346002BF1D07B681B6803F00803002BDE
:1057080017D07B681B69DB001846FFF7C6FAFCF761
:1057180053FBF86008E0FCF74FFB0246FB68D31A1E
:10572800022B01D903237CE0FFF798FB0346002BEB
:10573800F1D07B681B6803F00103002B43D07B6822
:105748005B68022B06D1FFF73EF90346002B1ED1FA
:10575800012366E07B685B68032B06D1FFF7FAFA42
:105768000346002B13D101235BE07B685B68002BA9
:1057780006D1FFF7D8F90346002B08D1012350E0E2
:10578800FFF74EF90346002B01D1012349E07B685E
:105798005B681846FFF712FAFCF70EFBF8600AE0A0
:1057A800FCF70AFB0246FB68D31A41F2883293429F
:1057B80001D9032335E0FFF714FA02467B685B68DA
:1057C8009B009A42ECD1194B1B6803F007033A6817
:1057D8009A421BD2154B1B6823F0070213493B68FA
:1057E80013430B60FCF7E8FAF86008E0FCF7E4FA0A
:1057F8000246FB68D31A022B01D9032311E00B4B95
:105808001B6803F007033A689A42EFD100F0B4F836
:105818000246074B1A60074B1B681846FCF7C2FA8A
:10582800034618461037BD4680BD00BF00400058EB
:10583800300000203400002090B587B000AF00236E
:105848007B6100233B61FFF7CCF9B860FFF7B5FA3D
:105858007860BB68002B05D0BB680C2B39D17B68FE
:10586800012B36D1FFF76FF90346002B15D1FFF74F
:105878006AF90346012B06D1FFF775F903461B0A9F
:1058880003F00F0305E0FFF779F903461B0A03F05D
:105898000F03364A52F8233014E0FFF754F9034651
:1058A800012B06D1FFF75FF903461B0903F00F032D
:1058B80005E0FFF763F903461B0903F00F032B4AC2
:1058C80052F823303B61BB68002B15D13B697B61E3
:1058D80012E0BB68042B02D1254B7B610CE0BB684E
:1058E800082B09D1FFF742F80346012B02D1204BC0
:1058F8007B6101E01F4B7B61FFF773F903460C2BBB
:105908002ED1FFF75AFA78607B68022B02D0032B5E
:1059180003D00DE0164BFB600DE0FFF727F80346B8
:10592800012B02D1124BFB6005E0124BFB6002E039
:105938003B69FB6000BFFFF71EFA0246FB6803FBEA
:1059480002F4FFF72FFA03461B090133B4FBF3F403
:10595800FFF71DFA03465B0F0133B4FBF3F37B61DA
:105968007B6918461C37BD4690BD00BFE8B10108E9
:105978000024F4000048E80198B500AFFFF75CFF89
:105988000446FFF79DF903461B0903F00F03034A7A
:1059980052F82330B4FBF3F3184698BD88B10108D8
:1059A80098B500AFFFF7E8FF0446FFF7A1F90346F3
:1059B8001B0A034A52F8233024FA03F3184698BD09
:1059C800C8B1010898B500AFFFF7D6FF0446FFF746
:1059D8009AF90346DB0A034A52F8233024FA03F300
:1059E800184698BDC8B1010890B585B000AF786079
:1059F8007B681B0903F00F03104A52F82330FB6041
:105A0800FFF769F903461B0903F00F030C4A52F824
:105A18002330FA68B2FBF3F3BB60BB68094AA2FB08
:105A280003239C0CFEF7FAFE03461946204600F0B5
:105A38000BF8034618461437BD4690BDE8B1010877
:105A480088B1010883DE1B4380B58EB000AF786053
:105A580039603C4A07F1200392E8030018600433D8
:105A68001980394A07F1180392E8030018600433D3
:105A78001980364A07F10C0307CA83E80700002398
:105A88007B633B68B3F5007F1DD100233B6316E0C1
:105A98003B6B5B0007F13802134433F8183C1A4695
:105AA8007B68934208D83B6B9B0007F1380213448C
:105AB80053F82C3C7B6323E03B6B01333B633B6B2C
:105AC800022BE5D91CE00023FB6216E0FB6A5B00B1
